:020000040800F2
:100000006004002001010008090100080B0100083C
:100010000D0100080F010008110100080000000098
:1000200000000000000000000000000013010008B4
:100030001501000800000000170100081901000860
:100040001B0100081B0100081B0100081B01000820
:100050001B0100081B0100081B0100081B01000810
:100060001B0100081B0100081B0100081B01000800
:100070001B0100081B0100081B0100081B010008F0
:100080001B0100081B0100081B0100081B010008E0
:100090001B0100081B0100081B0100081B010008D0
:1000A0001B0100081B0100081B0100081B010008C0
:1000B0001B0100081B0100081B0100081B010008B0
:1000C0001B0100081B0100081B0100081B010008A0
:1000D0001B01000861170008C11700081B01000878
:1000E0001B0100081B0100081B010008DFF80CD0F1
:1000F00000F058F800480047F11D00086004002097
:100100000648804706480047FEE7FEE7FEE7FEE7B1
:10011000FEE7FEE7FEE7FEE7FEE7FEE70117000861
:10012000ED00000810B5002200E0521C835C8C5CDE
:10013000A34201D1002BF8D1D8B2E1B2401A10BDD0
:100140002DE9F05F0546002092469B46884606460C
:10015000814640241BE0284641464746224600F09F
:1001600042F853465A46C01A914110D311461846D8
:10017000224600F029F82D1A67EB01084F46224667
:100180000120002100F020F817EB00094E41201E4D
:10019000A4F10104DFDC484631462A464346BDE867
:1001A000F09F0000064C074D06E0E06840F00103B8
:1001B00094E8070098471034AC42F6D3FFF79AFF53
:1001C000AC3F0008CC3F0008202A04DB203A00FAAC
:1001D00002F1002070479140C2F1200320FA03F39E
:1001E000194390407047202A04DB203A21FA02F09C
:1001F0000021704721FA02F3D040C2F12002914061
:100200000843194670472DE9F041074688461546D0
:100210000421052000F02DF80021012001F022FB2F
:1002200080210A2001F0EAF9002405E0395D092067
:1002300001F018FB601CC4B24445F7DB0321012028
:1002400001F010FBFF2400BF052001F0FBF806467B
:10025000601EC4B21CB106F004000028F4D02220B5
:1002600001F0F0F82870212001F0ECF86870BDE88A
:10027000F08170B505460C460026284601F0E2F8EC
:10028000064626EA0401284601F0ECFA70BD014654
:1002900001EB410292004FF47A735A434FF0E0238E
:1002A0005A6100229A6101221A6100BF4FF0E022D8
:1002B000106900F001021AB100F48032002AF5D072
:1002C00000224FF0E0231A619A61704701464FF017
:1002D000E022126922F004024FF0E0231A6101EBE0
:1002E000410292005A6100229A6101221A6100BF04
:1002F0004FF0E022106900F001021AB100F48032E0
:10030000002AF5D000224FF0E0231A619A6170476D
:1003100010B50A48006840F001000849086040F242
:10032000DC50FFF7D3FF0548006820F001000349C7
:1003300008604FF4FA70FFF7C9FF10BD0C0C0140C4
:1003400010B500241A48006820F4700018490860AD
:100350000846006840F48000086015480C300068CA
:1003600020F0100012490C3108600846006840F087
:10037000100008600420FFF7A9FF07E0601CC4B26A
:10038000FA2C03DB00F07EF9012010BD084808308C
:10039000006800F020000028F0D105480C3000680B
:1003A00020F0100002490C3108600020EDE7000049
:1003B000000C01401C48806940F008001A4988611F
:1003C0000846806940F0010088611848406820F0C4
:1003D000E060164948600846406840F00070486098
:1003E0001348006820F4700011490860084600684E
:1003F00040F4401008600846006820F4702008604F
:100400000846006840F44030086009480C30006835
:1004100040F0100006490C3108600846006840F0C2
:1004200020000860704700000010024000000140FA
:10043000000C014070B5054600241E48006820F4F9
:1004400070001C4908600846006840F4800008609D
:10045000002624E017480C30006820F010001549F1
:100460000C3108600220FFF731FF12480C300068A1
:1004700040F010000F490C3108606006040E081FA0
:10048000006800F0200028B1601CC4B221460AA018
:1004900001F004FA0220FFF719FF701CC6B2082E03
:1004A000D8DB15B100F00CF801E000F083F820462D
:1004B00070BD0000000C0140646174613A25640065
:1004C00010B51648006820F0100014490860134861
:1004D0000C38006820F4700010490C390860084698
:1004E000006840F4401008600C48006820F02000CC
:1004F0000A4908600220FFF7E9FE0848006840F05A
:100500001000064908600220FFF7E0FE034800687B
:1005100020F010000149086010BD00000C0C0140E3
:1005200070B504462248006820F470002049086035
:100530000846006840F4401008601D480C30006810
:1005400020F010001A490C31086000252DE004F05D
:10055000800040B116480C30006840F0200014497B
:100560000C31086007E012480C30006820F02000D1
:100570000F490C3108606006040E0220FFF7A6FE4A
:100580000B480C30006840F0100009490C3108603D
:100590000220FFF79BFE06480C30006820F0100098
:1005A00003490C310860681CC5B2082DCFDB70BD53
:1005B000000C014010B51648006820F010001449E6
:1005C000086013480C38006820F4700010490C399A
:1005D00008600846006840F4401008600C48006855
:1005E00040F020000A4908600220FFF76FFE08482B
:1005F000006840F01000064908600220FFF766FE20
:100600000348006820F010000149086010BD000098
:100610000C0C014010B51A48006820F4700018490D
:1006200008600846006840F44010086014480C3028
:10063000006820F0100012490C310860084600687C
:1006400040F0200008600846006840F01000086094
:100650000420FFF73BFE0A480C30006820F0200021
:1006600007490C3108600420FFF730FE04480C30C5
:10067000006820F0100002490C31086010BD000035
:10068000000C014010B51648006820F470001449B1
:1006900008600846006840F44010086010480C30BC
:1006A000006820F010000E490C3108600846006810
:1006B00020F0200008600846006840F01000086044
:1006C0000420FFF703FE06480C30006840F02000CD
:1006D00003490C3108600420FFF7F8FD10BD00004D
:1006E000000C01402DE9F04105460E46022700248A
:1006F0002946522000F0E5FD68B944F00104304677
:1007000000F0B2FC38B944F00204304600F004FEB8
:1007100008B944F00404072C00D100273846BDE88E
:10072000F081000000B5A7B059E02FA200210846D3
:1007300001F0FAFB2DA21021002001F03FFC4FF444
:10074000FA70FFF7A4FD2B4823AB2B4A0121009040
:10075000602000F04DFEE0BB9DF89B009DF89A10D4
:100760009DF899209DF89830CDE90A32CDE90C101A
:100770009DF897009DF896109DF895209DF894306F
:10078000CDE90632CDE908109DF893209DF892102E
:100790009DF891009DF89030CDE90230CDE904122A
:1007A0009DF88F009DF88E10CDE900109DF88D30DA
:1007B0009DF88C2011490FA801F080F80FAA0021A4
:1007C000084601F0FBFB4FF4FA70FFF760FD00F004
:1007D000F1FB00F0ADF910B100F0ECFB00E0A4E794
:1007E00000BF27B000BD0000BFA80000696E666FA3
:1007F0003A000000040000200A000020583F0008D2
:1008000000B5ADB067E02BA9522000F05AFD0028DA
:1008100044D12CA800F028FC002858D12CA800F0C6
:100820007BFD002853D19DF8AD309DF8AC202CA164
:1008300003A801F043F89DF8B3009DF8B210CDE98C
:1008400000109DF8B1309DF8B02028A117A801F044
:1008500035F82CA20021084601F066FB3A2230212F
:10086000002001F0FDFA03AA0021022001F0A6FBFE
:1008700026A20021042001F057FB3A222021042067
:1008800001F0EEFA17AA0021062001F097FB4FF4C1
:100890007A70FFF7FCFC00F08DFB18E01DA2082128
:1008A000002001F041FB1FA21021022001F03CFBBF
:1008B0001EA23021022001F081FB1EA25021022045
:1008C00001F032FB6420FFF7E2FC00F073FB00F064
:1008D0002FF900B100E096E700BF2DB000BD000089
:1008E0003078253032582025303258003078253085
:1008F00032582025303258202530325820253032C9
:1009000058000000BFA8C0E0D0CD0000BFA8BAC505
:1009100000000000C7EBB7C5D6C3BFA8C6ACB5BDC5
:10092000B6C10000BFA8C6F7000000003130434D3B
:1009300000000000D2D4C4DA0000000010B50FA2FD
:100940002821012001F0F0FA0EA21821042001F064
:10095000EBFA3A223821042001F082FA0BA2482156
:10096000042001F0E1FA05E000F0E2F810B100F037
:1009700021FB00E0F8E700BF10BD0000D6C7C4DCD3
:10098000CBF80000B3C9D4B100000000C9DBCEC46D
:10099000B1FE000030B595B0002400BF35A20021A3
:1009A000012001F0C1FA3A225021012001F058FA49
:1009B00033A000F073FF22E035A000F06FFF00F0DD
:1009C000B7F810B100F0F6FA50E03348006800F0D4
:1009D0000800A0B900F0E8F8054685B101A8055562
:1009E000E006010E2A22032001F03AFA052C04D178
:1009F000002101AA601C115402E0601CC4B2DBE7B4
:100A000000BF2648016801A8FFF78CFBB0B900F0D1
:100A1000D1FA23A21821012001F086FA21225821BF
:100A2000012001F01DFA052001F0DAFA182000F08B
:100A3000B7FD4FF4FA70FFF72AFC16E000F0BAFA9F
:100A40001AA21821012001F06FFA21225821012059
:100A500001F006FA102000F0A3FD4FF4FA70FFF742
:100A600016FC002400F0A6FA98E700BF00F0A2FAF6
:100A700015B030BDC7EBCAE4C8EBC3DCC2EB000065
:100A8000636F6D65696E303030303030300000009B
:100A9000636F6D65696E0000080C01400000002066
:100AA000C3DCC2EBD5FDC8B700000000C3DCC2EB5D
:100AB000B4EDCEF30000000038B5032415E0142097
:100AC00003460B4A21460090032001F03FFA842C94
:100AD00000DB03240A20FFF7DAFB00F06BFA601C4E
:100AE000C4B200F025F800B100E0E8E700BF38BD6F
:100AF000512700080C48806940F008000A498861C5
:100B00000A48006820F070400849086008460068FC
:100B100040F00040086005480C30006840F080005C
:100B200002490C310860704700100240000C01407F
:100B300010B50F48006800F0800078B90D480078C3
:100B400060B901200B4908700A20FFF7A0FB084894
:100B5000006800F0800048B9012010BD044800681A
:100B600000F0800010B10020024908700020F4E776
:100B7000080C01401000002010B50A48006840F041
:100B80000100084908604FF4FA70FFF79FFB054821
:100B9000006820F001000349086040F2DC50FFF7D4
:100BA00095FB10BD0C0C014010B500240121B420B0
:100BB00000F0F0F804020021B42000F0EBF8044348
:100BC00004F0010008B1312010BD04F0020008B1AA
:100BD0003420F9E704F0040008B13720F4E704F00A
:100BE000080008B12A20EFE704F0100008B1352012
:100BF000EAE704F0200008B13220E5E704F0400005
:100C000008B13820E0E704F0800008B13020DBE7CD
:100C100004F4807008B12320D6E704F4007008B112
:100C20003920D1E704F4806008B13620CCE704F421
:100C3000006008B13320C7E70020C5E710B50122E6
:100C40002B21B42000F0C5F801222C21B42000F0A3
:100C5000C0F800222D21B42000F0BBF800222E2184
:100C6000B42000F0B6F801222F21B42000F0B1F832
:100C700001223021B42000F0ACF8FF223121B42051
:100C800000F0A7F802223221B42000F0A2F80F22CF
:100C90004121B42000F09DF80A224221B42000F046
:100CA00098F80F224321B42000F093F80A2244213F
:100CB000B42000F08EF80F224521B42000F089F80E
:100CC0000A224621B42000F084F80F224721B420E4
:100CD00000F07FF80A224821B42000F07AF80F22B1
:100CE0004921B42000F075F80A224A21B42000F00E
:100CF00070F80F224B21B42000F06BF80A224C212F
:100D0000B42000F066F80F224D21B42000F061F805
:100D10000A224E21B42000F05CF80F224F21B420AB
:100D200000F057F80A225021B42000F052F80F22A8
:100D30005121B42000F04DF80A225221B42000F0D5
:100D400048F80F225321B42000F043F80A2254211E
:100D5000B42000F03EF80F225521B42000F039F8FD
:100D60000A225621B42000F034F80F225721B42073
:100D700000F02FF80A225821B42000F02AF80422AB
:100D80005D21B42000F025F80C225E21B42000F093
:100D900020F810BD70B504460D46FFF73BFC204619
:100DA000FFF7BEFBFFF7CCFA2846FFF7B9FBFFF7CA
:100DB000C7FAFFF72FFC44F00100FFF7B1FBFFF784
:100DC000BFFA0020FFF736FB0646FFF75BFC304614
:100DD00070BD70B506460C461546FFF71BFC304645
:100DE000FFF79EFBFFF7ACFA2046FFF799FBFFF7F2
:100DF000A7FA2846FFF794FBFFF7A2FAFFF742FC99
:100E000070BD00001F48806940F004001D498861E2
:100E10001D48006820F070401B49086008460068C3
:100E200040F04050086018480830006840F4004026
:100E30001549083108601448006820F470401249D0
:100E400008600846006840F4405008600E480830CA
:100E5000006840F400600C49083108600A480068E6
:100E600020F47020084908600846006840F44030CB
:100E7000086005480830006840F480500249083195
:100E800008607047001002400408014010B5FFF7E9
:100E9000B9FF00F0F7FA00F077F80021AE2000F07B
:100EA000BFF80021022000F0BBF80021102000F064
:100EB000B7F80021402000F0B3F80021812000F0B5
:100EC000AFF80021CF2000F0ABF80021A12000F006
:100ED000A7F80021C82000F0A3F80021A62000F008
:100EE0009FF80021A82000F09BF800213F2000F08F
:100EF00097F80021D32000F093F80021084600F075
:100F00008FF80021D52000F08BF80021802000F020
:100F100087F80021D92000F083F80021F12000F0AB
:100F20007FF80021DA2000F07BF80021122000F089
:100F300077F80021DB2000F073F80021402000F05A
:100F40006FF80021202000F06BF80021022000F053
:100F500067F800218D2000F063F80021142000F0D4
:100F60005FF80021A42000F05BF80021A62000F02B
:100F700057F80021AF2000F053F80021AF2000F017
:100F80004FF800F017F810BD10B50948006820F4BC
:100F90008050074908606420FFF779F90448006829
:100FA00040F48050024908606420FFF770F910BDDA
:100FB0000C08014070B5002419E004F1B001C8B27A
:100FC000002100F02DF80021084600F029F800214A
:100FD000102000F025F8002505E00121002000F098
:100FE0001FF8681CC5B2842DF7DB601CC4B2082C46
:100FF000E3DB70BD70B505460C4605F1B001C8B223
:10100000002100F00DF8102141EA1410002100F039
:1010100007F804F00F00002100F002F870BD000096
:1010200070B505460C4634B10E48006840F40060C7
:101030000C49086005E00B48006820F4006009498D
:1010400008600848006820F4004006490860284607
:1010500000F08EFA0348006840F40040014908603F
:1010600070BD00000C080140F0B587B005460027B0
:1010700008210846FFF7FDF800210D2000F0F2FBE3
:1010800080210E20FFF7F5F893208DF80400202032
:101090008DF8050006A801AB022201A900900C20E2
:1010A00000F045F8064686B9002407E001A8005D77
:1010B000285501A8005D4740601CC4B2042CF5DB34
:1010C00001A8005DB84200D0022680210E2000F069
:1010D00095FA304607B0F0BD2DE9F04188B00446DE
:1010E0000D4616461F468DF808408DF809503068A9
:1010F000CDF80A00B088ADF80E003868049007A853
:1011000002AB0C2202A900900E2000F010F88046DD
:10111000B8F1000F05D1082000F094F900F00800A4
:1011200008B94FF00208404608B0BDE8F0812DE94B
:10113000FE4F0646884691469A46DDF830B00220BA
:1011400002900020019000900C2E06D00E2E09D1A6
:10115000122001901020009005E0772001903020AF
:10116000009000E000BF00BF019840F08001022025
:1011700000F078FB80210420FFF77BF8002101209C
:1011800000F070FB80210A2000F038FA002506E00C
:1011900018F80510092000F065FB681C85B24D4564
:1011A000F6DB3146012000F05DFB0C2E03D18021DF
:1011B0000D2000F023FA4FF4167500BF042000F054
:1011C00041F90446681E85B235B104F0010018B932
:1011D000009820400028F1D080210D20FFF749F829
:1011E000002D38D0062000F02DF900F01B0078BB50
:1011F000002002900198204000F0010008B1012079
:1012000002900C2E27D10A2000F01CF904460C2075
:1012100000F018F900F007072FB1601E07EBC000BF
:101220008BF8000003E0E006000E8BF8000004B924
:101230000124122C00DD1224002506E0092000F014
:1012400001F90AF80500681C85B2A542F6DB02E048
:10125000FFE70220029080210C2000F0CFF900214E
:10126000012000F0FFFA0298BDE8FE8FF0B587B0CC
:1012700005460E4630208DF804008DF805500DF11E
:101280000602022101A8FEF7BEFF06A801AB042258
:1012900001A900900C20FFF74AFF07466FB99DF89F
:1012A0001800902809D1002404E001A8005D305501
:1012B000601CC4B2102CF8DB00E00227384607B0EF
:1012C000F0BD70B588B005460C4608210846FEF70B
:1012D000D0FF07210D2000F0C5FA0321142000F0F3
:1012E0008DF98DF8085007A802AB012202A90090E1
:1012F0000C20FFF71CFF064656B99DF81C0010286D
:1013000006D19DF8080020709DF80900607000E08B
:101310000226304608B070BD70B588B005469320EF
:101320008DF8080070208DF8090000208DF80E005F
:1013300000240BE0295D02AAA01C11549DF80E00A8
:10134000295D48408DF80E00601CC4B2042CF1DB0E
:101350000DF10F02072102A8FEF755FF08210846EC
:10136000FEF787FF07A802AB092202A900900C2014
:10137000FFF7DDFE06462EB99DF81C00182801D1A6
:10138000002600E00226304608B070BD164880698D
:1013900040F00400144988611448006820F070602F
:1013A000124908600846006840F0407008600F4825
:1013B0000C30006840F040000C490C3108600B48CC
:1013C000006820F07040094908600846006840F055
:1013D0004050086005480C30006840F08000034928
:1013E0000C31086070470000001002400008014006
:1013F0002DE9F04781460C4692461E46089F394625
:101400000E48FFF76FF9054675B9A046E01704EBE3
:1014100090708010032202EB8000C1B23B46084A64
:101420004846FFF759FE054625B931462046FFF7E5
:101430001DFF0546E8B2BDE8F08700000800002067
:101440000A00002070B5044600260D48006820F010
:1014500040000B4908607E2000EA440040F080050F
:10146000284600F085F8002000F082F8064604487F
:10147000006840F0400002490860304670BD00003E
:101480000C0801403648806940F008003449886102
:101490000846806940F0010088613248406820F0C9
:1014A000E060304948600846406840F0007048609D
:1014B0002B48C06940F480402949C8612A48006827
:1014C00020F47000284908600846006840F43000A5
:1014D00008600846006820F07060086008460068F0
:1014E00040F0006008600846006820F07040086026
:1014F0000846006840F0304008601C48008820F42E
:1015000000601A4908800846008840F4007008808E
:101510000846008840F4807008800846008820F063
:10152000800008800846008820F0380008800846BF
:10153000008808800846008840F0020008800846BD
:10154000008840F0010008800846008840F0040050
:1015500008800846008840F040000880704700007E
:101560000010024000000140040C0140003800401F
:1015700000BF0A49098801F002010029F9D0074992
:10158000091D088000BF0549098801F001010029F3
:10159000F9D00249091D0988C8B2704708380040CF
:1015A00070B504461448006840F001001249086014
:1015B0000820FEF76CFE1048006820F001000E497C
:1015C00008600120FEF763FE00250CE004F08000B7
:1015D000802802D1FEF79CFE01E0FFF7CDFA6006FD
:1015E000040E681CC5B2082DF0DB0348006820F02B
:1015F00001000149086070BD0C0C014070B5054642
:101600000C4600262846FFF71DFF064646EA040161
:10161000284600F027F970BD10B500F001F810BDA4
:101620000CB50020019000903348006840F48030F1
:101630003149086000BF3048006800F40030009075
:101640000198401C0190009818B90198B0F5A06F5E
:10165000F1D12948006800F4003010B10120009059
:1016600001E0002000900098012843D12348006841
:1016700040F01000214908600846006820F003008F
:1016800008600846006840F0020008601A48406898
:10169000194948600846406848600846406840F478
:1016A000806048600846406820F47C104860084626
:1016B000406840F4E81048600846006840F08070D8
:1016C000086000BF0C48006800F000700028F9D0E6
:1016D0000948406820F00300074948600846406810
:1016E00040F00200486000BF0348406800F00C0072
:1016F0000828F9D10CBD0000001002400020024073
:1017000010B51348006840F0010011490860084610
:101710004068104908400E494860084600680E4974
:1017200008400B4908600846006820F480200860E3
:101730000846406820F4FE0048604FF41F008860AF
:10174000FFF76AFF4FF000600449086010BD000019
:10175000001002400000FFF8FFFFF6FE08ED00E079
:1017600010B51348008800F0200058B11048001D43
:101770000088C1B20F4802780078401C0D4B1870E9
:101780000D4881540A48008800F0100078B10848DC
:1017900000880748001D008800200749054A127884
:1017A000885406A000F07AF800200249087010BDA5
:1017B00000380140180000202C0000202573000094
:1017C0000F48008800F0200058B10D48001D008827
:1017D0000C490D4A127888540B480078401C0A497D
:1017E00008700748008800F0100038B104480088ED
:1017F0000348001D0088012004490870704700005C
:101800000044004020000020280000202900002083
:101810001248806940F0080010498861104800684B
:1018200020F00F000E4908600846006840F00300F1
:1018300008600B480C30006820F0010008490C31AA
:1018400008600748006820F0F00005490860084675
:10185000006840F04000086070470000001002403F
:10186000000C014070B504460D460B48006820F09E
:101870004000094908607E2000EA44063046FFF730
:1018800077FE2846FFF774FE0348006840F04000EA
:101890000149086070BD00000C0801400FB4054B01
:1018A00010B503A9044A029800F02CF810BC5DF8AA
:1018B00014FB0000711D0008140000200FB4084B39
:1018C00010B504A902AA039800F01CF8044602A966
:1018D000002000F048FA204610BC5DF814FB000020
:1018E000671D000802E008C8121F08C1002AFAD1CB
:1018F00070477047002001E001C1121F002AFBD190
:10190000704700002DE9FF4F8DB00F4605460026B9
:1019100006E025280BD0DDE90F1290476D1C761CE0
:1019200028780028F5D111B03046BDE8F08F0024AA
:10193000A246A1460122EC4900E0044315F8013F0C
:10194000203B02FA03F00842F7D128782A2810D069
:101950006FF02F022878A0F13001092914D80AEB82
:101960008A0102EB410144F0020400EB010A6D1C04
:10197000F0E701CF5FEA000A03D544F40054CAF14E
:10198000000A44F002046D1C28782E2817D115F89F
:10199000010F44F004042A280ED06FF02F0228789B
:1019A000A0F1300109290AD809EB890102EB4101B4
:1019B00000EB01096D1CF2E757F8049B6D1C2878B9
:1019C0006C280FD006DC4C2817D068280DD06A2868
:1019D00014D104E0742810D07A280FD10DE044F41B
:1019E00000140AE044F4801401E044F440146978DF
:1019F000814202D104F580146D1C6D1C2A786E2A78
:101A00001FD00CDC632A31D004DC002A8BD0582A8A
:101A100011D1A3E0642A68D0692A0CD165E0732A49
:101A20002ED004DC6F2A73D0702A04D19BE0752A73
:101A30006FD0782A6ED01046DDE90F129047761CE1
:101A400050E1C4F30250022806D0032809D004282C
:101A500001CF09D0066045E101CFF117C0E900616F
:101A600040E101CF06803DE106703BE117F8040B31
:101A70008DF8000000208DF80100EB46012003E006
:101A800057F804BB4FF0FF3061074FF0000102D45C
:101A90000DE008F10101884649450FDA8045F8DB81
:101AA0001BF808100029F4D108E008F1010188466C
:101AB0008142FADB1BF808100029F6D1DDE90F237B
:101AC000AAEB08008146214600F036F9304400EBCD
:101AD000080604E0DDE90F121BF8010B9047B8F18E
:101AE0000108F7D221464846F7E00A21C4F3025321
:101AF0004FF0000B0891022B04D001CFC117032B2C
:101B000009D00AE0FF1D27F00707F7E8020108E007
:101B100032E01FE020E000B2C117042B01D140B237
:101B2000C117031E71F1000307DA4FF0000CD0EB70
:101B30000C006CEB01012D2302E0230504D52B23BF
:101B40008DF82430012303E0E30701D02023F7E7D9
:101B5000984658E00A2110E010210EE010204FF0C6
:101B6000000B08900CE010214FF0000B44F004042F
:101B70004FF00809089103E008214FF0000B08918D
:101B8000C4F30253022B04D001CF0021032B06D053
:101B900006E0FF1D27F00707F7E8020103E080B227
:101BA000042B00D1C0B24FF0000823072BD5702AB8
:101BB00007D0DDF820C08CF0100C5CEA0B0C05D0CF
:101BC0000EE040238DF82430012308E050EA0103A1
:101BD00006D030238DF824308DF825200223984636
:101BE000DDF820C08CF0080C5CEA0B0C0BD150EA3D
:101BF000010301D1630706D530238DF824304FF05F
:101C00000108A9F10109582A04D038A20B9208AAA8
:101C10000A920BE03AA2F9E75B46089AFEF790FABF
:101C20000B9B9B5C0A9A521E0A92137050EA0102A7
:101C3000F2D10A98ADEB000000F1200B600702D54D
:101C400024F4803401E04FF00109D94502DDA9EB0D
:101C50000B0000E0002000EB0B0141440890AAEBD0
:101C6000010AE00306D4DDE90F232146504600F0C7
:101C700063F806444FF0000908E009A911F80900CB
:101C8000DDE90F12904709F10109761CC145F4DB2B
:101C9000E0030CD5DDE90F232146504600F04CF857
:101CA000064404E0DDE90F1230209047761C0899C5
:101CB000481E08900029F5DC08E00A980A99007887
:101CC000491C0A91DDE90F129047761CBBF1000117
:101CD000ABF1010BF1DC21465046DDE90F2300F0AA
:101CE00019F806446D1C1BE6092801003031323317
:101CF0003435363738396162636465660000000048
:101D00003031323334353637383941424344454631
:101D1000000000002DE9F041044600251E4617464C
:101D2000880404D405E039462020B0476D1C641EA9
:101D3000F9D52846BDE8F0812DE9F041044600259B
:101D40001E469046C80301D5302700E020278804AE
:101D500004D505E041463846B0476D1C641EF9D5F0
:101D60002846BDE8F0810A68531C0B60107070476C
:101D700000BF054A128802F04002002AF9D0C2B220
:101D8000014B1B1D1A8070470038014010B51648E2
:101D9000806940F00400144988611448006820F408
:101DA0007020124908600846006840F4403008601E
:101DB0000846006820F4700008600846006840F497
:101DC0004010086009480C30006820F020000749E6
:101DD0000C3108600846006820F0200008600021EF
:101DE000012000F013F910BD00100240000801406E
:101DF0000024FEF77FFEFFF749F8FEF7DBFAFEF757
:101E00001DFFFFF705FDFFF73DFBFFF7BFFAFFF7EB
:101E1000BDFF4FF4E13000F029F91FE0052C1CD282
:101E2000DFE804F003080D121700FEF787FD601CC1
:101E3000C4B212E0FEF740FE601CC4B20DE0FEF733
:101E4000A9FD601CC4B208E0FEF7DAFC601CC4B255
:101E500003E0FEF767FC002400BF00BFDEE70000E0
:101E60002DE9F047064688461746A7F1200000F006
:101E7000FF09002416E03119C8B24146FFF7BAF84D
:101E800000250BE0102101FB095101EBC401074AB9
:101E9000505C0121FFF7C4F8681CC5B2082DF1DBC6
:101EA000601CC4B2022CE6DBBDE8F0878D27000879
:101EB0002DE9F047804689461646002410E0307828
:101EC000174911F81410884208D17078012101EBEC
:101ED0004401134A515C884200D102E0601C84B284
:101EE000EDE700BF002517E008EB0501C8B2494641
:101EF000FFF780F800270BE0202101FB047101EBC4
:101F00000511084A505C0121FFF78AF8781CC7B216
:101F1000102FF1DB681CC5B2022DE5DBBDE8F087B0
:101F2000C02100080922000870B506460D46144677
:101F300008E0224629463046FFF7BAFFA41C05F107
:101F40001000C5B220780028F3D170BD2DE9F05FF4
:101F500081468B4692461E460A9CE11704EB51715E
:101F6000C910A4EBC10131B92046E11704EB51714E
:101F7000C1F3C70807E02046E11704EB5171C9100F
:101F8000491C01F0FF08002514E009EB0501C8B267
:101F90005946FFF72FF8002708E006FB05711AF8ED
:101FA00001000121FFF73CF8781CC7B2B742F4DB0F
:101FB000681CC5B24545E8DBBDE8F09F70B5064634
:101FC0000D46144608E0227829463046FFF748FFC0
:101FD000641C05F10800C5B220780028F3D170BD5B
:101FE00010B504460121002000F010F804EB440174
:101FF000C1EBC4114FF6FF7202EAC100FEF747F9C8
:102000000021012000F002F810BD000070B5054667
:102010000C4635B11448006840F0100012490860C1
:1020200005E01148006820F010000F49086034B145
:102030000D48006840F020000B49086005E00A48A0
:10204000006820F0200008490860FA20FEF71FF918
:102050000548006820F01000034908600846006841
:1020600020F02000086070BD0C0801402DE9F0410F
:1020700003464D48806940F004004B4988614B4855
:10208000006820F0F000494908600846006840F008
:10209000B00008600846006820F4706008600846D8
:1020A000006840F4806008603F48806940F48040E8
:1020B0003D4988613E48008820F480503C490880B2
:1020C0000846008840F0080008800846008840F074
:1020D000040008800846008840F020000880084678
:1020E000008840F010000880081D008820F440504F
:1020F000091D08802F48B0FBF3F02D49091F088007
:102100000520012402250146C1F1070CBCF1040F92
:1021100002D94FF0040C01E0C1F1070C674601F150
:10212000040CBCF1070F02D24FF0000C01E0A1F14A
:10213000030C66464FF0010C0CFA07FCACF1010CE5
:102140000CEA040C0CFA06FC4FF0010808FA06F839
:10215000A8F1010808EA05084CEA080200BF252199
:102160001046002907DA0407260E134C01F00F056C
:102170002D1F665503E00407250E104C655400BF63
:10218000252000F01F040121A1404409A40004F10E
:10219000E024C4F8001100BF0548008840F4005056
:1021A00003490880BDE8F0810010024004080140A6
:1021B0000C38014000A24A0418ED00E000E400E001
:1021C000D0C5D3AFB4EFC7B6C8EBCABDD6C7C4DC61
:1021D000CBF8B3C9D4B1C9DBCEC4B1FEC7EBCAE4F6
:1021E000C8EBC3DCC2EBD5FDC8B7BFA8C0E0D0CDFB
:1021F000BAC5B7C5D6C3C6ACB5BDB6C1BFA8C6F7CC
:10220000D2D4C4DAB4EDCEF300008060F807000445
:10221000242425262424240400010000FF000000BB
:10222000F94949494949F90000000082621E0AAA99
:102230004ABA021A9610F0000040417C44447D44A2
:1022400044447D44447D404000404042CC00101056
:1022500010907F9010101010000040201F20484464
:102260004241404041424C40008080EE888888E8EE
:102270008F088878484E40C00000007F2424247FC7
:10228000008140300F30418000000000000001E27A
:102290001CE000000000000000804020100C030043
:1022A0000000030C304080800010109090909090BF
:1022B0001010FF101011161000002060203F1010A9
:1022C0001000030C102040F800109453321E3252BC
:1022D00010007E4242427E0000000000FF49494952
:1022E00049494949FF0000000008CC4A49484ACC06
:1022F00018007F88888482E00000FF121252927FCB
:1023000000007E88888482E00020102CE7242400CE
:10231000E22C20BF2028E600000101017F2111806E
:102320004F20100F10204F80000000F88888888808
:102330000808FF08090AC8080080601F0010201F55
:1023400080402116182641F8000000C05E5252520B
:10235000525252525EC000000080808F40402010D8
:102360000E101020204F8000008042320E022242C8
:102370003E0000FE0222DA060000007F212121211A
:102380007F0000FF081008070008080838C808097F
:102390000E0808C838080808008080404020110A4C
:1023A000040A11204040808000807000FF1008E285
:1023B000222222FE222222E200806018070810FF5B
:1023C000080403000146807F004042CC00004454D2
:1023D00054547F54545444400000007F201000FFA8
:1023E00015151555957F00000088681FC80810C88E
:1023F0005452D1129408D01000091909FF0500FFAA
:102400001292FF005F807F0000000000000001E2E8
:102410001CE000000000000000804020100C0300C1
:102420000000030C3040808000108C4404E40495CC
:10243000A64424148444940C0002027A414143428D
:102440007E42424243F80000000484E45C44C4003D
:1024500002F2828282FE80800002017F10103F0023
:10246000080808084888403F00000202C202020231
:10247000FE82828282820200004040407F404040D3
:102480007F40404040404040000484E45C44C4201D
:1024900010E82724E4342CE00002017F10103F8074
:1024A000601F09093F49897F00404040404040FF8C
:1024B000444444444444404000000000000000FF05
:1024C00000000204081000000000101092543010A8
:1024D000FF10305492101000008485454424140CE1
:1024E000060C142444458484002022A27E2222FE6D
:1024F0002222007C0000FF0000444249484848492D
:102500007E484848494A414000808080BEA2A2A23D
:10251000A2A2A2A2BE8080800000000006050404E2
:10252000044484443C000000000808F94A48C848B4
:1025300020D8171010F010100040300F20403F80BE
:10254000402116081621408000001715D555575513
:102550007D555755D5151700004040407F555555BE
:10256000555555557F40404000000000FE2020207A
:1025700020203F2020202000000080601F02020257
:10258000020202FE00000000004262524AC64252AD
:1025900062C200F80000FF000040C444447F2424CD
:1025A0002420000F40807F0000404042CC000020EB
:1025B00024A4243FA424A460000000007F201088ED
:1025C0008A4C29180F1828C800404040404040FF5E
:1025D000444444444444404000000000000000FFE4
:1025E00000000204081000000080809E9292929EDB
:1025F000E0809EB2D2929E80000808F4949292F1FC
:102600000001F2929494F808000000FC000002041B
:10261000180000807F0000000000003F1008844088
:1026200020100C03081020C00000F80808080888D3
:102630007F8808080808F8000000FF00080402016D
:10264000000001024C807F00004030EF24644848C5
:102650007F4848487F4848400001017F211100FF22
:102660004949494949FF0000004042CC0000809E92
:1026700092929292929E80000000007F2094844467
:1026800024140F142444848400000000000000007F
:1026900000000000E0A0E0E0F8DCCCE6E6ECE0E0E2
:1026A000E0C0C0C08000000000000000000000008A
:1026B0000000000000000000C0F8FEFEFFFFFFFF6A
:1026C000FFFFFFFFFFFFFFFFFFF7F3E7EFFFFFFC59
:1026D000F8C0000000000000000000000000000042
:1026E000637FFFFFFFFF1FD9DFFFDFFFBF1737FF4C
:1026F000FFFBDFDFFFFFFFFFFF7F000000000000A8
:1027000000000000000000000000030F3FFFFCF08D
:10271000E3C3C381907C309083C363F0FFFFFF1F4E
:1027200003000000000000000000000000000000A6
:10273000406030331313111018080C070101030116
:1027400000070818111133313020606000000000CC
:102750000000000000F030303070E0000080C06009
:10276000F07840400000FCFE9E8F9EFE7E7E7FFF44
:102770009E9FF9F00000000000000001010101002F
:102780000000000001010000000000000000000047
:102790000000000000000000000000000000000039
:1027A000F800000000000000333000000000100CB2
:1027B00006100C0600000000000000000040C07879
:1027C00040C0784000043F04043F040400007088C7
:1027D000FC08300000001820FF211E0000F008F067
:1027E00000E018000000211C031E211E0000F0085C
:1027F00088700000001E2123241927211010160EB6
:1028000000000000000000000000000000000000C8
:10281000E018040200000000071820400000020435
:1028200018E0000000004020180700000040408031
:10283000F0804040000202010F010202000000008F
:10284000F0000000000101011F0101010000000073
:10285000000000000080B0700000000000000000D8
:102860000000000000000101010101010100000061
:1028700000000000000030300000000000000000F8
:102880000080601804006018060100000000E010DD
:10289000080810E000000F102020100F000010109A
:1028A000F8000000000020203F20200000007008F9
:1028B00008088870000030282422213000003008E9
:1028C00088884830000018202020110E000000C029
:1028D0002010F8000000070424243F240000F8081A
:1028E00088880808000019212020110E0000E0103F
:1028F0008888180000000F112020110E00003808F1
:1029000008C83808000000003F0000000000708880
:102910000808887000001C222121221C0000E01001
:10292000080810E0000000312222110F0000000012
:10293000C0C00000000000003030000000000000B7
:1029400080000000000000806000000000000080A7
:102950004020100800000102040810200040404000
:102960004040404000040404040404040000081033
:102970002040800000002010080402010000704880
:10298000080808F0000000003036010000C030C820
:1029900028E810E0000718272423140B000000C0CB
:1029A00038E0000000203C23020227382008F88885
:1029B0008888700000203F202020110E00C03008C1
:1029C0000808083800071820202010080008F80818
:1029D000080810E000203F202020100F0008F88891
:1029E00088E8081000203F20202320180008F888DD
:1029F00088E8081000203F200003000000C03008D5
:102A0000080838000007182020221E020008F808D5
:102A1000000008F808203F210101213F200008089C
:102A2000F8080800000020203F20200000000008D7
:102A300008F8080800C08080807F00000008F8883F
:102A4000C028180800203F20012638200008F80878
:102A50000000000000203F20202020300008F8F86F
:102A600000F8F80800203F003F003F200008F83041
:102A7000C00008F808203F200007183F00E01008B9
:102A8000080810E0000F10202020100F0008F808A0
:102A9000080808F000203F210101010000E01008B3
:102AA000080810E0000F18242438504F0008F88858
:102AB0008888887000203F2000030C302000708838
:102AC00008080838000038202121221C00180808B6
:102AD000F8080818000000203F2000000008F8084F
:102AE000000008F808001F202020201F0008788818
:102AF0000000C83808000007380E010000F8080080
:102B0000F80008F800033C0700073C0300081868B9
:102B1000808068180820302C03032C30200838C827
:102B200000C83808000000203F20000000100808FE
:102B300008C838080020382621202018000000008E
:102B4000FE020202000000007F40404000000C3006
:102B5000C000000000000000010638C000000202B2
:102B600002FE000000004040407F00000000000422
:102B7000020202040000000000000000000000004B
:102B80000000000000808080808080808000020241
:102B900004000000000000000000000000000080B1
:102BA00080808000000019242222223F2008F800A3
:102BB0008080000000003F112020110E0000000066
:102BC0008080800000000E112020201100000000F5
:102BD000808088F800000E112020103F2000008027
:102BE0008080800000001F222222221300008080AB
:102BF000F0888888180020203F20200000000080F6
:102C00008080808000006B94949493600008F800AA
:102C10008080800000203F210000203F200080981D
:102C200098000000000020203F202000000000004D
:102C3000809898000000C08080807F000008F80025
:102C40000080808000203F24022D302000000808F2
:102C5000F8000000000020203F202000008080803D
:102C60008080808000203F20003F20003F80800047
:102C70008080800000203F210000203F2000008055
:102C80008080800000001F202020201F0080800006
:102C9000808000000080FFA12020110E00000000B5
:102CA0008080808000000E112020A0FF8080808026
:102CB000008080800020203F212000010000008053
:102CC0008080808000003324242424190000808028
:102CD000E0808000000000001F20200000808000B5
:102CE0000000808000001F202020103F2080808076
:102CF000000080808000010E300806010080800006
:102D000080008080800F300C030C300F000080802A
:102D100000808080000020312E0E312000808080D5
:102D2000000080808080818E701806010000808005
:102D300080808080000021302C22213000000000A3
:102D400000807C020200000000003F4040000000C4
:102D500000FF00000000000000FF00000000020271
:102D60007C800000000040403F00000000000601A1
:102D70000102020404000000000000000000000046
:102D80000000000000000000000000000000000043
:102D90000000000000000000000000000000000033
:102DA0000000000000000000000000000000000023
:102DB000000000F0F0F00000000000000000000043
:102DC000000000017F010000000000000000000082
:102DD0000000001C1C1C1C00000000000000008003
:102DE00060303C1C8C60303C1C0C0000000000007B
:102DF00000000000000000000000000000000000D3
:102E000000000000000000000000000000000000C2
:102E10000000E0000000000000E0000000008686E6
:102E200086FE878686868686FE8786860000010166
:102E30001F0101010101011F01010101000000004A
:102E400080C0402020F8202060C0C00000000000AA
:102E500003070C0C18FF3060E1C18100000000077F
:102E60000F0B1010107F1010080F07000080C060BB
:102E70002020C08000000080C0200000000F1F3014
:102E800020301F8F60D8E6331030E0C00000000013
:102E9000100C030100070F1810180F070000008026
:102EA000C0602020E0C00000000000000080E0279B
:102EB0001F78E8C4070304C43C04040000070F188B
:102EC000101010110B070F181010100C0000808C40
:102ED0004C7C3800000000000000000000000000F2
:102EE00000000000000000000000000000000000E2
:102EF00000000000000000000000000000000000D2
:102F0000000000000000C06030180804000000004D
:102F1000000000007CFF0100000000000000000035
:102F2000000000000003070C1830204000000408D7
:102F3000183060C000000000000000000000000029
:102F400000000001FF7C00000000000000004020A5
:102F500030180C0703000000000000000000000013
:102F600000000000C0C0C0000000000000000042DF
:102F70006666242818FF18242466664200000000B4
:102F80000000000003030300000000000000000038
:102F900000000000008000000000000000000010A1
:102FA0001010101010FF1010101010100000000072
:102FB000000000000003000000000000000000000E
:102FC0000000000000000000000000000000000001
:102FD0000000000000000000000000000000808CE5
:102FE0004C7C3800000000000000000000000000E1
:102FF00000000000000000000000000000001010B1
:103000001010101010101010101010100000000000
:1030100000000000000000000000000000000000B0
:1030200000000000000000000000000000000000A0
:103030000000000000000000000000000000001C74
:103040001C1C180000000000000000000000000030
:103050000000000000000000C03018040000000064
:10306000000080C03018060300000000000040305F
:103070001806010000000000000000000000000031
:1030800000C0C0602020202040C00000000000FCE4
:10309000FF030000000000000001FFFE0000000030
:1030A00003060C1810101018080E03000000000092
:1030B00080808080C0E00000000000000000000070
:1030C00000000000FFFF0000000000000000000002
:1030D000101010101F1F10101010000000000080B2
:1030E0004040202020202060C0C08000000000035D
:1030F0000200000080402030180F07000000001878
:103100001C1A191918181818181C0700000000803C
:10311000C040202020206040C0800000000000034C
:10312000030000101010182867C38000000000077B
:103130000F101010101010180C07030000000000F2
:103140000000000000C0E0F0F0000000000080C0BF
:10315000B09884828180FFFFFF80808000000000A3
:103160000000001010101F1F1F10101000000000A2
:1031700000E060606060606060606000000000000F
:103180003E2310080808081830F0C00000000007AF
:103190000B101010101010180C0F0300000000008E
:1031A0000080C0402020202020E0C000000000FC63
:1031B000FF211018080808081830F0C000000001AE
:1031C000070E081810101010180C070300000080DC
:1031D000E060606060606060E0602000000000030C
:1031E00000000000C0300C020100000000000000E0
:1031F0000000001E1F000000000000000000008012
:10320000C04020202020202040C08000000080C33B
:10321000672C181810303070E8C783000000070FC3
:103220000C18101010101018080F07000000008074
:10323000C060202020202040C080000000001F3FF0
:10324000306040404040602010FFFE000000000C55
:103250001C1010101018080C0703000000000000DC
:10326000000000000000000000000000000000005E
:103270000000000E0E0E0E00000000000000000016
:103280000000001C1C1C1C000000000000000000CE
:10329000000000000000000000000000000000002E
:1032A0000000000C0C000000000000000000000006
:1032B000000000583800000000000000000000007E
:1032C000000000000000804060201000000000109E
:1032D000382844C683010000000000000000000000
:1032E00000000000010102040C08100000000000B2
:1032F00000000000000000000000000000008484C6
:10330000848484848484848484848484000000008D
:10331000000000000000000000000000000000109D
:10332000206040800000000000000000000000005D
:10333000000000000183C64428381000000000107F
:10334000080C0402010100000000000000000080E1
:10335000C0202010101010103020E0C0000000032A
:1033600003030000E0101008080407030000000039
:103370000000001C1C1C1C000000000000000000DD
:1033800080C0402020202020404080000000FCFF22
:103390000300F0FC0E03C1FD1F00C13F000000034D
:1033A000060C081111111011090904020000000097
:1033B000000000E0E0E0000000000000000000006D
:1033C000C078474040477FF8C00000000010101E42
:1033D00011100000000000111F1E1010000020201E
:1033E000E0E020202020206060C08000000000007D
:1033F000FFFF1010101010182867C7800000101071
:103400001F1F101010101010180C0F0700000000E4
:1034100080C04020202020202060E0000000FCFF31
:103420000300000000000000000000010000010394
:10343000060C1810101010100808040300002020BB
:10344000E0E0202020202040C0800000000000009C
:10345000FFFF0000000000000001FFFE0000101050
:103460001F1F1010101018080C0703000000202068
:10347000E0E020202020202020606080000000006C
:10348000FFFF1010101010107C0000000000101042
:103490001F1F10101010101010181C060000202004
:1034A000E0E0202020202020206060E000000000DC
:1034B000FFFF101010101010307C000001001010E1
:1034C0001F1F10100000000000000000000000009E
:1034D00080C040202020202040E000000000FCFFB1
:1034E000030000000000004040C0C1404000000355
:1034F000070C181010101010180F0F00002020E0FB
:10350000E020200000002020E0E02020000000FF5C
:10351000FF10101010101010FFFF00000010101FFF
:103520001F101000000010101F1F101000000000DE
:1035300020202020E0E020202020000000000000CB
:1035400000000000FFFF000000000000000000007D
:10355000101010101F1F10101010000000000000AD
:10356000000020202020E0E020202020000000009B
:10357000000000000000FFFF00000000000060E00D
:10358000E080808080407F3F00000000000020201D
:10359000E0E02020000020A060602020000000006B
:1035A000FFFF30181C7EE3C1000000000000101077
:1035B0001F1F101000000013171E181010002020ED
:1035C000E0E02020000000000000000000000000FB
:1035D000FFFF0000000000000000000000001010CD
:1035E0001F1F10101010101010181C06002020E0D3
:1035F000E0E0000000000000E0E0E020200000FF2C
:10360000010FFEF00080700F01FFFF000010101F7F
:10361000101000071F030010101F1F10102020E0C3
:10362000E0E080000000002020E02020000000FFFB
:103630000001071E3CF0E08000FF00000010101F9A
:1036400010100000000001071E1F00000000000015
:1036500080C0602020202060408000000000FCFF2F
:1036600001000000000000000001FFFC000000035A
:10367000060C181010101018080603000000202077
:10368000E0E020202020202060C0C00000000000DA
:10369000FFFF20202020202030101F0700001010E6
:1036A0001F1F1010000000000000000000000000BC
:1036B00080C0602020202060408000000000FCFFCF
:1036C00001000000000000000001FFFE00000107F3
:1036D000060E191111131E3C78666320000020208D
:1036E000E0E020202020206060C08000000000007A
:1036F000FFFF10103070F098080F07000000101046
:103700001F1F1010000001071F1C10100000008078
:10371000C04020202020202040C0E0000000000702
:103720000F0C08181810303060E0C1800000000352
:103730001E0808101010101018080F07000080E075
:1037400020202020E0E020202020608000000100D8
:1037500000000000FFFF000000000001000000006A
:10376000000010101F1F101000000000002020E0BB
:10377000E02020000000002020E02020000000FFCA
:10378000FF0000000000000000FF00000000000734
:103790000F0810101010100808070000000020206B
:1037A000E0E02000000000002020E02020000000D9
:1037B00001073FF8C00000C038070000000000000B
:1037C000000000010F1F0E01000000000020E0E0DB
:1037D00020200020E0E020000020E0602000001F0A
:1037E000FFE000E01D3FFCC0807807000000000003
:1037F000031F07000000031F070000000000202037
:10380000E0E0A020000020A0E02020000000000058
:10381000000187DE3CF8C6810000000000001010A7
:1038200018161100000011171E1C10100000206057
:10383000E0E0202000000020A0E0202000000000A8
:1038400000030F3CF8E01806010000000000000033
:10385000000010101F1F101000000000000000806A
:1038600060602020202020E0E060200000000000B8
:103870000000C0E0781E0F030100000000001018D7
:103880001E17131010101010181C06000000000066
:10389000000000FC04040404040404000000000010
:1038A000000000FF00000000000000000000000019
:1038B0000000007F404040404040400000000000C9
:1038C00030E0800000000000000000000000000068
:1038D000000001071C70C000000000000000000094
:1038E00000000000000001071C70C0000000000480
:1038F000040404040404FC000000000000000000B4
:10390000000000000000FF00000000000000004078
:103910004040404040407F000000000000000000A8
:103920000010080C0404040C081000000000000043
:103930000000000000000000000000000000000087
:103940000000000000000000000000000000000077
:103950000000000000000000000000000000000067
:1039600000000000000000000000000000808080D7
:1039700080808080808080808080808080000000C7
:10398000000404040808000000000000000000001B
:103990000000000000000000000000000000000027
:1039A0000000000000000000000000000000000017
:1039B000000000000000000000000000000000986F
:1039C000D8444444242424F8F80000000000070FE1
:1039D000181010101008080F1F10100800002020E9
:1039E000E0F0000000000000000000000000000007
:1039F000FFFF1008040404040418F8E000000000AD
:103A00001F0F081010101010180C07030000000002
:103A1000000000000000000000000000000000E0C6
:103A2000F01808040404040C3830000000000003FF
:103A3000070C181010101010080C020000000000F5
:103A40000000000000002020E0F00000000000E086
:103A5000F0180C0404040408FFFF00000000000339
:103A60000F0C18101010080C1F0F080800000000A1
:103A7000000000000000000000000000000000E066
:103A8000F04848444444444448786000000000033F
:103A9000070C08101010101010080400000000009F
:103AA00000000080C0402020202020E0C000000452
:103AB000040404FFFF0404040404000000000000E8
:103AC0001010101F1F101010100000000000000048
:103AD00000000000000000000000000000000000E6
:103AE00070F88C040404048CF8740C0C0000003092
:103AF00076CF858D8D8D898988C87830000020200B
:103B0000E0F00000000000000000000000000000E5
:103B1000FFFF1008040404040CFCF800000010105F
:103B20001F1F101000000010101F1F1010000000B9
:103B30000000000060606000000000000000000065
:103B400004040404FCFC000000000000000000006D
:103B5000101010101F1F10101010000000000000A7
:103B60000000000000000000606060000000000035
:103B70000000000004040404FCFC0000000000003D
:103B800040C08080808080407F3F00000000202077
:103B9000E0F0000000000000000000000000000055
:103BA000FFFF8080C0E0940C0404040000001010AB
:103BB0001F1F11100001131F1C181010000000001F
:103BC00020202020E0F000000000000000000000A5
:103BD00000000000FFFF00000000000000000000E7
:103BE000101010101F1F1010101000000000000017
:103BF000000000000000000000000000000004FCC5
:103C0000FC080404FCF8080404FCF8000000101F81
:103C10001F1000101F1F1000101F1F1000000000B9
:103C2000000000000000000000000000000004048C
:103C3000FCFC1008040404040CF8F8000000101048
:103C40001F1F101000000010101F1F101000000098
:103C5000000000000000000000000000000000E084
:103C6000F0180804040404040818F0E0000000033D
:103C7000070C081010101010080C070300000000BB
:103C8000000000000000000000000000000004042C
:103C9000FCFC1808040404040C18F8E00000808000
:103CA000FFFF889010101010180C07030000000090
:103CB000000000000000000000000000000000E024
:103CC000F01808040404040408F8FC0000000003D1
:103CD000070C18101010108888FFFF80800000006B
:103CE00000000000000000000000000000000404CC
:103CF0000404FCFC2010080404040C0C0000101048
:103D000010101F1F10101010000000000000000015
:103D100000000000000000000000000000000000A3
:103D200030784CC4C48484840C0C1C000000001E39
:103D30001C18101010101011190F060000000000C0
:103D400000000000C00000000000000000000004AF
:103D5000040406FFFF040404040400000000000043
:103D60000000000F1F1810101008040000000000D1
:103D7000000000000000000000000000000004043B
:103D8000FCFE00000000000404FCFE000000000037
:103D90000F0F181010101008081F0F08080000005F
:103DA000000000000000000000000000000004040B
:103DB0001C7CE484000084641C04040000000000F7
:103DC0000000030F1E0E01000000000000000000B4
:103DD00000000000000000000000000000040C3C97
:103DE000FCC40004FC7CFC8400C43C0C0400000007
:103DF000010F1E070000071F0E0100000000000059
:103E000000000000000000000000000000000004AE
:103E1000040C1C7CE4C0A4140C040400000010106A
:103E2000181C16030101131F1C18101000000000BD
:103E3000000000000000000000000000000004047A
:103E40001C3CF4C4000000C43C0C0404000000C08E
:103E5000C08080433F0E030000000000000000000F
:103E60000000000000000000000000000000001C36
:103E70000C040484C4E4741C0C0400000000001052
:103E8000181E171311101010101806000000000063
:103E900000000000000000F80C0404000000000016
:103EA00000000000101028CF0000000000000000FB
:103EB000000000000000003F6040400000000000E3
:103EC0000000000000FF00000000000000000000F3
:103ED0000000000000FF00000000000000000000E3
:103EE0000000000000FF00000000000000000004CF
:103EF000040CF800000000000000000000000000BA
:103F00000000CF281010000000000000000000405A
:103F100040603F0000000000000000000000180C9E
:103F2000020202060C1810202020100800000000D9
:103F30000000000000000000000000000000000081
:103F40000000000000000000000000000000000071
:103F50003132333435360000307825303258202560
:103F60003032582025303258202530325820253024
:103F70003258202530325820253032582025303212
:103F800058202530325820253032582025303258DC
:103F90002025303258202530325820253032582004
:103FA000253032582025303258000000CC3F000820
:103FB000000000202C000000E4180008F83F000872
:103FC0002C00002034040000F4180008503F0008C2
:103FD000000000000000FFFFFFFFFFFF00000000E7
:103FE00000000000000000000000000000000000D1
:083FF0000000000000000000C9
:04000005080000ED02
:00000001FF
