:020000040800F2
:10000000200400209D010008A5010008A7010008A8
:10001000A9010008AB010008AD01000800000000C4
:10002000000000000000000000000000AF01000818
:10003000B101000800000000B3010008B50100088C
:10004000B7010008B7010008B7010008B7010008B0
:10005000B7010008B7010008B7010008B7010008A0
:10006000B7010008B7010008B7010008B701000890
:10007000B7010008B7010008B7010008B701000880
:10008000B7010008B7010008B7010008B701000870
:10009000B7010008B7010008B7010008B701000860
:1000A000B7010008B7010008B7010008B701000850
:1000B000B7010008B7010008B7010008B701000840
:1000C000B7010008B7010008B7010008B701000830
:1000D000B701000829060008B7010008B7010008A9
:1000E000B7010008B7010008B7010008B701000810
:1000F000B7010008B7010008B7010008B701000800
:10010000B7010008B7010008B7010008B7010008EF
:10011000B7010008B7010008B7010008B7010008DF
:10012000B7010008B7010008B7010008B7010008CF
:10013000B7010008B7010008B7010008B7010008BF
:10014000B7010008B7010008B7010008B7010008AF
:10015000B7010008B7010008B7010008B70100089F
:10016000B7010008B7010008B7010008B70100088F
:10017000B7010008B7010008B7010008B70100087F
:10018000B7010008B7010008DFF80CD000F018F83C
:100190000048004761090008200400200648804705
:1001A00006480047FEE7FEE7FEE7FEE7FEE7FEE75C
:1001B000FEE7FEE7FEE7FEE7C1050008890100084B
:1001C000064C074D06E0E06840F0010394E80700A4
:1001D00098471034AC42F6D3FFF7DAFFD009000895
:1001E000F00900080A48006840F004000849086067
:1001F0000848006820F440700649086005480C3043
:10020000006820F4407003490C310860704700001A
:1002100030380240000802400448006800F0100036
:1002200008B1012070470020FCE7000010080240E0
:100230002448006840F00100224908600846006830
:1002400040F0100008602048006820F003001E49BC
:1002500008600846C06820F00300C8600846C0680F
:1002600040F00200C8601948006820F030001749CB
:1002700008600846C06820F03000C8600846C068C2
:1002800040F01000C8600846006820F0C000086018
:100290000846C06820F0C000C8600846C06840F04A
:1002A0004000C8600846006820F4407008600846B6
:1002B000C06820F44070C8600846C06840F4807090
:1002C000C860704730380240000002400010024011
:1002D0005348006840F00100514908600846006832
:1002E00040F0040008604F48006820F440704D4919
:1002F00008600846006840F480700860081D0068C7
:1003000020F01000091D0860081D006820F44070EE
:10031000091D08600846006840F400700860081D68
:10032000006820F44070091D08603E4814300068E1
:1003300040F010003B49143108603A48006820F44E
:100340004060384908600846006840F480600860F2
:10035000081D006820F02000091D0860081D0068C5
:1003600020F44060091D08600846006840F4006001
:100370000860081D006820F44060091D08602948D5
:100380001430006840F020002649143108602648E7
:10039000006820F44050244908600846006840F492
:1003A000805008600846406820F0400048600846D9
:1003B000806820F4405088600846806840F400500F
:1003C00088600846C06820F44050C860084640690C
:1003D00040F0400048610846006820F44040086052
:1003E0000846006840F4804008600846406820F0F5
:1003F000800048600846806820F4404088600846D5
:10040000806840F4004088600846C06820F440409E
:10041000C8600846406940F08000486170470000AD
:1004200030380240000802400000024005281FD278
:10043000DFE800F01303070B0F0010210E4A1180B4
:1004400017E020210C4A118013E040210B4A118350
:100450000FE08021094A11830BE01021064A118028
:10046000202111804021054A11838021118300E061
:1004700000BF00BF704700001808024000000240A3
:1004800005281FD2DFE800F01303070B0F0010212F
:100490000E4A118017E020210C4A118013E0402100
:1004A0000B4A51830FE08021094A51830BE0102150
:1004B000064A1180202111804021054A5183802164
:1004C000518300E000BF00BF704700001A080240DF
:1004D000000002400CB500200190009034480068F4
:1004E00040F480303249086000BF3148006800F4B1
:1004F000003000900198401C0190009818B90198B4
:10050000B0F5A04FF1D12A48006800F4003010B1D6
:100510000120009001E0002000900098012846D1C1
:1005200023484030006840F0805021494031086045
:100530002048006840F440401E4908601C480830CC
:1005400000681B49083108600846006840F4004014
:1005500008600846006840F4A05008601648091F6B
:100560000860081F006840F08070091F086000BF25
:100570000F48006800F000700028F9D040F20570C4
:100580000E4908600A480830006820F00300084956
:10059000083108600846006840F00200086000BFAB
:1005A00003480830006800F00C000828F8D10CBDA2
:1005B000003802400070004019544007003C0240DF
:1005C00010B51548006840F47000134908601348DE
:1005D000006840F001001149086000200F4908310F
:1005E00008600E4800680E4908400C4908600D4834
:1005F000091D0860081F006820F48020091F08609A
:10060000002006490C310860FFF764FF4FF00060DE
:1006100001498039086010BD88ED00E000380240D3
:10062000FFFFF6FE103000241348008800F0200081
:1006300000B31148008820F020000F4908800846C8
:1006400080880E490E4A1278885408460C49097869
:10065000405C232809D10B48007830B900200849B4
:10066000087001200749087004E005480078401C24
:100670000349087070470000001001400800002086
:1006800000000020010000202DE9F04F06460F4633
:1006900013467D49096841F001017B4A11607B499D
:1006A000096821F44021794A11601146096841F432
:1006B000002111601146496A21F0F00273494A6233
:1006C000496A41F0700271494A62096821F4401197
:1006D0006E4A11601146096841F40011116011461B
:1006E000496A21F4706269494A62496A41F4E062E8
:1006F00066494A6264491431096841F01001624A4E
:10070000143211606249898921F48051604A9181D3
:100710001146098A21F4405111821146898941F01C
:10072000080191811146898941F0040191812BB919
:100730001146898921F40041918105E05449898954
:1007400041F40041524A918152497943C3F1020276
:10075000D2007243B1FBF2F100EE901AB8EE600ADB
:10076000FCEEC00A10EE900A00EE900AF8EE600A65
:1007700070EE600AB3EE001A60EE810AFCEEE00A49
:1007800010EE905A45EA0011414A118111468989BB
:1007900041F02001918105218C46DFF8FC80D8F8DA
:1007A00000204FF6FF0802EA0802DFF8F08042EA74
:1007B000080848EA0C22DFF8E080C8F8002000BFF3
:1007C0004FF0010C4FF002080A46C2F1070BBBF1D3
:1007D000040F02D94FF0040B01E0C2F1070BDA4617
:1007E00002F1040BBBF1070F02D24FF0000B01E046
:1007F000A2F1030BD9464FF0010B0BFA0AFBABF148
:10080000010B0BEA0C0B0BFA09FB4FF0010E0EFA71
:1008100009FEAEF1010E0EEA080E4BEA0E0400BF0F
:1008200025222146002A0EDA4FEA017C4FEA1C6994
:10083000DFF864C00CF10C0C02F00F08A8F10408FA
:100840000CF8089007E04FEA017C4FEA1C68DFF8DB
:1008500050C00CF8028000BF252101F01F0C0122BE
:1008600002FA0CF24FEA511C4FEA8C0C0CF1E02C0E
:10087000CCF8002100BF0649898941F40051044A9F
:100880009181BDE8F08F0000303802400000024046
:100890000010014040420F000CED00E00000FA059E
:1008A00000E400E0014A024900F013B849090008D9
:1008B0000400002002E008C8121F08C1002AFAD173
:1008C00070477047002001E001C1121F002AFBD1D0
:1008D00070472DE9F04116460F460446002503E017
:1008E0003946B047641C6D1C20780028F8D1284692
:1008F000BDE8F0811248006840F01000104908601F
:100900001048006820F003000E490860084600689F
:1009100040F0010008600846406820F0010048608F
:100920000846806820F0030088600846C06820F010
:100930000300C8600846406920F001004861704724
:100940003038024000100240044B988000BF034A38
:10095000128802F08002002AF9D07047001001408E
:100960000024FFF7B5FCFFF763FCFFF7C3FF00228D
:1009700054214FF4E130FFF787FEFFF733FC11E01D
:10098000FFF74AFC0446012C06D10320FFF778FD4F
:1009900005A0FFF787FF05E00320FFF747FD07A04D
:1009A000FFF780FFECE70000C7B0B7BDD3C9D5CFD4
:1009B000B0ADCEEFA3A10D0A00000000BDF1CCEC5C
:1009C000CCECC6F8BADCBAC3A3A10D0A0000000043
:1009D000F00900080000002008000000B40800082A
:1009E000F80900080800002018040000C4080008E6
:0809F0000000000000000000FF
:040000050800018965
:00000001FF
