:020000040800F2
:1000000030810120815A0008D5190008D71900084D
:10001000D9190008DB190008DD19000800000000EC
:10002000000000000000000000000000DF190008D0
:10003000E1190008000000007FE000087984000852
:100040009B5A00089B5A00089B5A0008E7290008A1
:100050009B5A00089B5A00089B5A00089B5A0008AC
:100060009B5A00089B5A00089B5A00089B5A00089C
:100070009B5A00089B5A00089B5A00089B5A00088C
:100080009B5A00089B5A00089B5A00089B5A00087C
:100090009B5A00089B5A00089B5A0008F51E00084E
:1000A0009B5A00089B5A00089B5A00089B5A00085C
:1000B000A73000089B5A00089B5A00089B5A00086A
:1000C0009B5A00089B5A00089B5A00089B5A00083C
:1000D0009B5A0008318600089F2B00087B87000888
:1000E0009B5A0008B32900089B5A00089B5A000835
:1000F0009B5A00089B5A00089B5A00089B5A00080C
:100100009B5A00089B5A00089B5A00089B5A0008FB
:100110009B5A00089B5A00089B5A00089B5A0008EB
:100120009B5A00089B5A00089B5A00089B5A0008DB
:100130009B5A00089B5A00089B5A00089B5A0008CB
:100140009B5A00089B5A00089B5A00089B5A0008BB
:100150009B5A00089B5A00089B5A00089B5A0008AB
:100160009B5A00089B5A00089B5A00089B5A00089B
:100170009B5A00089B5A00089B5A00089B5A00088B
:100180009B5A00089B5A000800F002F800F070F833
:100190000AA090E8000C82448344AAF10107DA45E2
:1001A00001D100F065F8AFF2090EBAE80F0013F0C4
:1001B000010F18BFFB1A43F001031847940A01000E
:1001C000B40A01000A444FF0000C10F8013B13F090
:1001D000070408BF10F8014B1D1108BF10F8015BA0
:1001E000641E05D010F8016B641E01F8016BF9D193
:1001F00013F0080F1EBF10F8014BAD1C0C1B09D1EA
:100200006D1E58BF01F801CBFAD505E014F8016B5B
:1002100001F8016B6D1EF9D59142D6D370470000ED
:100220000023002400250026103A28BF78C1FBD8FF
:10023000520728BF30C148BF0B60704764290DF0DA
:10024000498378290DF0828373290DF0D28500202F
:1002500070471FB50FF01BFA0DF0DEFE0400002002
:1002600000210EF077FC401C60601FBD10B510BD72
:100270000DF0ADFE1146FFF7ECFF01F0FFF90DF0B8
:10028000DDFE03B4FFF7F2FF03BC08F073F90000D2
:100290008AB0FEA00DF0AEFA03F0A8F805F0E8F978
:1002A000142101A80DF0A2FC2022102101A80DF0BC
:1002B00073FCFC4CFC4D09AA08A907A805F028FA14
:1002C00008B1642038E00798A04206DCA84204D8B0
:1002D0000898A04201DCA8422DD906AB00220821D3
:1002E000F2480AF02CFB06A800900023EF481A46BB
:1002F000194658380AF0BEFD01AA0421002002F078
:100300001EF816220421202002F030F817220421C2
:10031000302002F02BF802220421402002F026F8BF
:1003200003220421502002F021F8E04806AA00210F
:1003300058380AF0CFFE322008F0F1F8BBE70EB5CE
:1003400001F00EFCDAA00DF055FA0026DE4D0DF19D
:1003500008084FF484790127CDE900684B46002254
:100360003021D2480AF0C4F8BDF8081019B1D7A05E
:100370000DF040FAF0E7C1060ED50024C5F8B862CA
:10038000642008F0CCF8C5F8B872642008F0C7F80B
:10039000641C052CF2DBDFE78006DDD5C5F8B872FA
:1003A000DAE70EB501F030FDD2A00DF023FA0127F7
:1003B000D64D0DF108094FF4847A4FF4E67B002600
:1003C000CDE90069534600225946B8480AF090F832
:1003D000BDF8081019B1BDA00DF00CFAF0E7410707
:1003E0001AD500244FF4FA78C5F8A072502008F00E
:1003F00096F8C5F8A062502008F091F8C5F8A072F0
:10040000502008F08CF8C5F8A062404608F087F844
:10041000641C062CE8DBD3E7010703D5C5F8A072FE
:10042000642005E0410606D5C5F8A0724FF47A7045
:1004300008F075F806E0010602D5C5F8A072BFE71E
:10044000C005BDD5C5F8A062BAE790B0B0A00DF068
:10045000D1F94FF4165002F04FFBB34FB34D0024C7
:100460006E46002000EB8411394489683150001D2C
:1004700040B24028F6DB8AA168460DF043FB30B15C
:100480002878401C2870641C64B2642CE9DB4FF4AB
:100490007A7402F006FD204608F041F8F9E7A0B0B2
:1004A0004FF00009CDF82C90CDF83090CDF8349075
:1004B0004C469FA0CDF838900DF09CF902F0D6FA8A
:1004C000142106A80DF092FB2022102106A80DF0A1
:1004D00063FB0BAF1FAE4FF0010A002535B1012DB4
:1004E00008D0022D0AD0032D0FD10BE09649C1F898
:1004F00090920AE09449C1F8B89206E09249C1F896
:10050000809202E07049C1F89C92DFF8BC81D8F873
:10051000240200287ED1322008F001F8D8F8240205
:100520000028F7D11FAB0022082160480AF007FA23
:1005300002E0012007F0F3FFD8F824020028F8D0E9
:1005400035B1012D06D0022D65D0032DE2D158E141
:10055000442057E175490120491D07F09CF9734972
:100560000120491C07F01FF9704C2078401C2070B6
:1005700076A10BA80DF062FB002860D01FAB002213
:1005800040214A480AF0DBF96048C0F8A4A20023E1
:1005900046481A461946583800960AF06BFC06AAD7
:1005A0000421002001F0CBFE10220421202001F0C4
:1005B000DDFE11220421302001F0D8FE1422042196
:1005C000402001F0D3FE15220421502001F0CEFE80
:1005D00036481FAA002158380AF07CFD601C90F8AC
:1005E00002C043780278001D0178CDE90212CDE9FE
:1005F000043C82784178CDE90012C378227855A175
:100600000FA80DF003F9207864283DD807F0F0FC1E
:10061000002501E00EE1F2E0DFF80CB1ABF1380BA0
:100620000FA84159207805EB801202EB0B0007F070
:10063000F6FD092829D056A00DF0DCF8FEE7334975
:10064000C1F8A492002319481A4619465838009652
:100650000AF010FC06AA0421002001F070FE10220E
:100660000421202001F082FE11220421302001F01B
:100670007DFE12220421402001F078FE1322042185
:10068000502001F073FE91E0AFE0A7E07461736B5E
:10069000313220697320637265617465206F6B0D60
:1006A0000A00000000007041000070C17C3D002085
:1006B0007461736B31312069732063726561746595
:1006C000206F6B0D0A000000000042425B746173F2
:1006D0006B315D5B4F53466C616750656E645D4581
:1006E00072726F7220436F6465203D2025640D0A8D
:1006F000000000007461736B3130206973206372F5
:1007000065617465206F6B0D0A0000000080424235
:100710007461736B3920697320637265617465203D
:100720006F6B0D0A000000000000020800000020AE
:100730007461736B3820697320637265617465201E
:100740006F6B0D0A000000000080414231323334EB
:10075000353600005B253033645D32302530327829
:100760002F253032782F25303278205765656B3A47
:10077000257820253032783A253032783A253032C3
:10078000782070617373776F72642020300D0A00D7
:10079000464C4153485F50726F6772616D576F727C
:1007A00064206661696C0D0A000000001FAA002128
:1007B000FE480AF08FFCFE4890F802C043780278A9
:1007C000001D0178CDE90212CDE9043C8278417820
:1007D000CDE90012C3782278F6A111E72D1D6DB284
:1007E000402DFFF61DAF07F00FFC0024CDF82C9034
:1007F000CDF83090CDF83490CDF838901AE0302014
:1008000000E02A20385500231A461946E748641CA0
:1008100000960AF02FFB06AA0421002001F08FFDAC
:100820000BAA0421282001F08AFD1FAA0021DF481D
:100830000AF050FCD8F82C02D8BB322007F06FFE2B
:10084000D8F82C02A8BBD9481FAB00220821583089
:100850000AF075F802E0012007F061FED8F82C02DA
:100860000028F8D035B1012D06D0022D06D0032D79
:100870001FD105E0432004E0392002E0382000E0E9
:100880003720385500231A461946C848641C00967C
:100890000AF0F0FA06AA0421002001F050FD0BAA8C
:1008A0000421282001F04BFD1FAA0021BF480AF0B7
:1008B00011FCD8F83C02C346D8BB322007F02FFE0B
:1008C000DBF83C02A8BBB9481FAB00220821583016
:1008D0000AF035F802E0012007F021FEDBF83C02C7
:1008E0000028F8D035B1012D06D0022D06D0032DF9
:1008F0001FD105E0422004E0362002E0352000E070
:100900003420385500231A461946A848641C00961E
:100910000AF0B0FA06AA0421002001F010FD0BAA8B
:100920000421282001F00BFD1FAA00219F480AF096
:10093000D1FBDFF8BC82D8F82402D8BB322007F004
:10094000EEFDD8F8241219B134E0012007F0E7FDDC
:10095000D8F824020028F8D094481FAB00220821C0
:10096000583009F0ECFF35B1012D06D0022D06D02C
:10097000032D1FD105E0412004E0332002E03220A6
:1009800000E03120385500231A4619468748641C78
:1009900000960AF06FFA06AA0421002001F0CFFCAD
:1009A0000BAA0421282001F0CAFC1FAA00217F48BD
:1009B0000AF090FB35B1012D07D0022D08D0032D90
:1009C0000BD108E0C8F890A207E0C8F8B8A204E08C
:1009D000C8F880A201E0CBF89CA26D1C6DB2042D7A
:1009E000FFF67CAD012007F09AFD76E586B081A088
:1009F0000CF000FF01F0A8F9002305AD1A461946D6
:100A00006A4800950AF036FA05AA002167480AF0FC
:100A100061FB664F7D4E0DF1040880374FF47A7903
:100A200001F0B5F9040024D4306805AB84424FF0DE
:100A3000000201D2102100E020215C48583009F06A
:100A40007EFF224672A101A80CF0E0FE0023C7F849
:100A50000C801A461946554800950AF00BFA01AA6F
:100A60000221042001F06BFC05AA00214F480AF086
:100A700031FB484607F053FDD2E788B064242022BA
:100A8000102103A80DF088F864A00CF0B3FE01F06B
:100A9000FAFA01F029FBDFF89C8100264FF48477F5
:100AA00007AD4248CDE900653B46002201215830A0
:100AB00009F01EFDBDF81C1021B1AFF2F0300CF0B2
:100AC00099FEEEE7C007ECD002A801F061FA002819
:100AD000E7D19DF80B0000909DF80A309DF80920A1
:100AE0009DF8081054A00CF085FE00231A46194604
:100AF0002E4800950AF0BEF903AA0421002001F057
:100B00001EFC07220421202001F030FC08220421D1
:100B1000302001F02BFC09220421402001F026FCAA
:100B20000A220421502001F021FC07AA00211F48BD
:100B30000AF0D0FA9DF80A00072803D01528B0D192
:100B4000641F03E0641D642C00D9642421463EA088
:100B50000CF050FE2146404605F067FFA1E798B033
:100B600000262022102112A80DF016F83AA00CF051
:100B700041FEDFF838A0DFF894900AF1A80A16AD1C
:100B800000270A48CDE9007517AB3A463946303898
:100B90000AF06FFC8046014635A00CF02BFEB8F140
:100BA000000FEDD0BDF85C00002865E0243D00207A
:100BB000010000205B253033645D3230253032780F
:100BC0002F253032782F25303278205765656B3AE3
:100BD000257820253032783A253032783A2530325F
:100BE000782070617373776F72642020310D0A0072
:100BF000008041427461736B3720697320637265B2
:100C0000617465206F6B0D0A00000000000002088F
:100C1000443A253034646D6D000000007461736BDC
:100C20003620697320637265617465206F6B0D0AED
:100C3000000000000000014025782C25782C257844
:100C40002C25780A0D000000636F6D7061726533AA
:100C50003D25640A0D0000007461736B35206973D3
:100C600020637265617465206F6B0D0A00000000DF
:100C7000703D25730D0A000082D0FEA140460CF0A5
:100C800041FF10B3404601F07DFD00231A4619468E
:100C9000FA4800950AF0EEF812AA0421002001F0AB
:100CA0004EFBF7A20421202001F049FB16AA0021E7
:100CB000F2480AF00FFA0023F0481A4619462C3081
:100CC00000950AF0D7F8F1A095E1F4A140460CF0A8
:100CD00019FF10B3404601F055FD00231A4619468E
:100CE000E64800950AF0C6F812AA0421002001F097
:100CF00026FBECA20421202001F021FB16AA0021F2
:100D0000DE480AF0E7F90023DC481A4619462C3081
:100D100000950AF0AFF8E6A06DE1E9A140460CF0BD
:100D2000F1FE10B3404601F0D0FD00231A461946EB
:100D3000D24800950AF09EF812AA0421002001F082
:100D4000FEFAE1A20421202001F0F9FA16AA0021FE
:100D5000CA480AF0BFF90023C8481A4619462C3081
:100D600000950AF087F8DBA045E1DEA140460CF0D3
:100D7000C9FE90B300231A461946C04800950AF0F0
:100D800079F812AA0421002001F0D9FAD7A204218F
:100D9000202001F0D4FA16AA0021B8480AF09AF9E6
:100DA0000023B6481A4619462C3000950AF062F81E
:100DB000B24F00248037D0A157F824000CF0E0FE99
:100DC00057F8240007F0B0FC641C64B2042CF2DB7A
:100DD000AA48002116AA2C30F1E1FFE7C7A140463E
:100DE0000CF090FE002874D0A4484FF44851A8306D
:100DF0000CF0FCFEC4A140460CF07EFEC2A1002017
:100E00000CF07AFE804600204FF4C8734F465146DE
:100E100057F8202041F8202051F82020521C03D000
:100E2000401C40B29842F3DB0C460968B7A00CF0B6
:100E3000E1FC40460CF052FE206007F0D9F807F0C4
:100E40000DFE83460221282007F011F9092803D05E
:100E5000B3A00CF0CFFCFEE7B946002457460EE0E5
:100E600057F8241009EB840007F0D9F9092804D0B9
:100E7000AFF2E4600CF0BEFCFEE7641C64B257F80D
:100E80002400401CECD1584607F0ECFD07F0BCF8FC
:100E900000231A4619467948009509F0EBFF12AA7B
:100EA0000421002001F04BFAA4A20421202001F02B
:100EB00046FA16AA002171480AF00CF900236F487F
:100EC0001A4619462C30009509F0D4FF9DA092E0F7
:100ED000FFE79FA140460CF015FE00287ED0674832
:100EE0004FF44851A8300CF081FE87A140460CF029
:100EF00003FE85A100200CF0FFFD8046002418E0D1
:100F0000A0F13001092901D84FB207E0A0F1610139
:100F1000192901D8573800E0373847B239468DA033
:100F20000CF068FCC4F10500800087403E43641C5F
:100F300064B218F804002328E2D100204FF4C873EB
:100F40004F46514657F8202041F8202051F82020E4
:100F5000521C03D0401C40B29842F3DB4E6007F0B5
:100F600047F807F07BFD83460221282007F07FF831
:100F7000092803D06AA00CF03DFCFEE7B946002426
:100F800057460EE057F8241009EB840007F047F9A4
:100F9000092804D0AFF608000CF02CFCFEE7641C16
:100FA00064B257F82400401CECD1584607F05AFDB3
:100FB00007F02AF800231A4619463048009509F030
:100FC00059FF12AA0421002001F0B9F964A20421FA
:100FD000202001F0B4F916AA002100E00EE0274815
:100FE0000AF078F8002325481A4619462C30009557
:100FF00009F040FF5CA007F097FBE9E65DA14046E1
:101000000CF080FD98B300240DF1080B4F46002032
:10101000594600EB84123A4492680A50001D40B2CF
:101020004028F6DB1CA102A80CF06CFD00B30023E5
:101030001A4619461148009509F01CFF16AA00210E
:101040000E480AF047F800230C481A4619462C307F
:10105000009509F00FFF02A807F066FB074816AAE3
:1010600000212C300AF036F802A944A08CE0A9E057
:1010700091E000004441544500000000243D002060
:1010800073657420646174610000000073657420EE
:1010900064617461206F6B0D0A00000054494D4576
:1010A000000000007365742074696D652000000005
:1010B0007365742074696D65206F6B0D0A00000004
:1010C000414C41524D00000073657420616C6172A7
:1010D0006D20000073657420616C61726D206F6B10
:1010E0000D0A000051554552590000007175657296
:1010F00079206F6B000000000A0D00004449535432
:10110000414E4345000000002D00000073617665EC
:101110005F646174615B305D3D3D25640D0A0000D4
:10112000464C4153485F4572617365536563746F04
:1011300072206661696C0D0A0000000073657420FE
:10114000440000007365742044206F6B0D0A00009A
:10115000494400006E756D3D25640D0A00000000D5
:101160007365742069640000736574204944206FBE
:101170006B0D0A0053484F57000000006275663D32
:1011800025730D0A000000000CF034FB641C64B2EF
:10119000642CFFF63CAF00231A461946FE48009522
:1011A00009F068FE12AA0421002001F0C8F8FBA291
:1011B0000421202001F0C3F816AA0021F64809F006
:1011C00089FF68E0F7A140460CF09CFC002862D043
:1011D000F1484FF44851A8300CF008FDD9F8001040
:1011E0005446CAF80010D9F80400CAF8040006F002
:1011F000FFFE07F033FC83460221282006F037FF6C
:10120000092804D0AFF2E8000CF0F4FAFEE72168F8
:10121000484607F004F8092804D0AFF68C200CF0FB
:10122000E9FAFEE76168E14806F0F9FF092804D011
:10123000AFF6A4200CF0DEFAFEE7584607F012FCE9
:1012400006F0E2FE00231A461946D348009509F03D
:1012500011FE12AA0421002001F071F8D4A2042189
:10126000202001F06CF816AA0021CB4809F032FFCB
:101270000023C9481A4619462C30009509F0FAFD9A
:10128000CEA007F051FAC44816AA00212C3009F06C
:1012900021FFCD480770BDF85C1040460CF084FC7F
:1012A0006EE486B001F092F901F0C7F9C74E3046FE
:1012B00005F037FFC6A00CF09DFA00230DF11409CC
:1012C0001A461946B448CDF8009009F0D3FD05AA96
:1012D0000021B14809F0FEFE4FF47A77002425463C
:1012E00040F6FF780221304605F0E3FF0028F9D0F0
:1012F0000221304605F0E4FF304605F044FF40F699
:10130000E4414843B0FBF8F06D1C0444BD42E9DB06
:10131000B4FBF7F06421484340F6E441B0FBF1F23E
:10132000B1A101A80CF072FAB148844225D3002380
:101330001A4619469848CDF8009009F09BFD042202
:101340001146182001F012F805220421282001F08E
:101350000DF806220421382001F008F802220421A9
:10136000482001F003F803220421582000F0FEFF7A
:1013700005AA0021884809F0ADFE874901A88031FF
:1013800088609CA10CF0FCFB00231A461946824899
:10139000CDF8009009F06EFD2C220221482000F0CB
:1013A00069FF01AA0221502000F0C9FF05AA00210F
:1013B000794809F08FFE384607F0B1F88EE78AB019
:1013C00000F006FC8CA00CF015FA734D02AC8035D1
:1013D00008AE41F2707706A800F01FFC00281FDB62
:1013E0009DF819109DF81800CDE900019DF81B30FB
:1013F0009DF81A2086A102A80CF008FA00232C60A0
:101400001A4619466448009609F034FD02AA0021E4
:10141000102000F094FF08AA00215F4809F05AFE4E
:10142000384607F07CF8D6E786B000F007FD00F0FC
:101430003CFD7C4E304605F074FE7BA00CF0DAF9E2
:101440004FF000094FF47A7800252C4640F6FF77DC
:101450000221304605F02DFF0028F9D00221304648
:1014600005F02EFF304605F08EFE40F6E44148437D
:10147000B0FBF7F0641C05444445E9DB7048854245
:1014800034D82022102101A80CF086FB05A80023E7
:1014900000901A461946404809F0ECFC01AA0421C4
:1014A000002000F04CFF00220421202000F05EFF0D
:1014B00001220421302000F059FF022204214020A3
:1014C00000F054FF03220421502000F04FFF05AA32
:1014D0000021314809F0FEFDCDF80490CDF80890C8
:1014E000CDF80C9057A1CDF8109008E0CDF80490FD
:1014F000CDF80890CDF80C9054A1CDF8109001A82B
:101500000CF084F9244901A880314860404607F076
:1015100006F899E788B00024029403940494059493
:1015200001F0B8F84BA00CF065F94FF4847606ADE5
:1015300019483346002202215830CDE9004508F011
:10154000D7FFBDF8181021B1AFF680600CF052F94A
:10155000EEE78007ECD51C490120491C06F023F971
:101560001948401C81780091437802783FA102A875
:101570000CF04CF900231A4619460748009509F06B
:1015800079FC02AA0621202000F0D9FE06AA00213B
:10159000014809F09FFDCBE7243D002073686F7779
:1015A000206F6B00434C45415200000004000208CC
:1015B000636C656172206F6B00000000636C656195
:1015C00072206F6B0D0A0000000000200021014016
:1015D0007461736B34206973206372656174652074
:1015E0006F6B0D0A00000000433A253033640000A1
:1015F000C0C62D00250000007461736B3320697331
:1016000020637265617465206F6B0D0A0000000035
:10161000543A253032642E25642C483A2530326401
:101620002E256400002001407461736B32206973C1
:1016300020637265617465206F6B0D0A0000000005
:1016400067881E00463A594553000000463A4E4FFF
:10165000000000007461736B312069732063726550
:10166000617465206F6B0D0A000000002530327830
:101670003A253032783A2530327800008AB001F0CD
:10168000D5FC01F0E5FC06F005FF4FF4A06004F086
:1016900017FA4FF4E13006F075FF4FF4165006F0DC
:1016A000FAFF07F059F800F0A4FE7D2004F08EFB4D
:1016B00020B187A00CF09EF804F08AFD09A808F07C
:1016C000E4F900244FF00C0809AD05948027854902
:1016D000CDF808800694CDE9074506262346AFF2EB
:1016E000CB12CDE900617F48CDE903747EA1C438F7
:1016F0000AF06FFB05947E49CDF808800694CDE989
:1017000007450023AFF2DF22CDE900617848CDE93B
:10171000037478A1C4380AF05CFB05947749CDF8CE
:1017200008800694CDE907450023AFF26D32CDE97C
:1017300000617248CDE9037471A1C4380AF049FB15
:1017400005947149CDF808800694CDE9074500233A
:10175000AFF2B142CDE900616B48CDE903746BA1F2
:10176000C4380AF036FB05946A49CDF8088006941F
:10177000CDE907450023AFF61942CDE90061654880
:10178000CDE9037464A1C4380AF023FB05946449CD
:10179000CDF808800694CDE907450023AFF6255221
:1017A000CDE900615E48CDE903745EA1C4380AF05A
:1017B00010FB05945D49CDF808800694CDE90745F6
:1017C0000023AFF6D752CDE900615848CDE9037444
:1017D00057A1C4380AF0FDFA05945749CDF808809E
:1017E0000694CDE90745CDE900615348CDE903747E
:1017F0000023524A52A1C4380AF0EBFA0594524928
:10180000CDF808800694CDE90745CDE900614E4842
:10181000CDE9037400234D4A4DA1C4380AF0D9FA2A
:1018200005944D49CDF808800694CDE90745CDE9EA
:1018300000614948CDE903740023484A48A1C438EF
:101840000AF0C7FA05944849CDF808800694CDE916
:101850000745CDE900614448CDE903740023434ABC
:1018600043A1C4380AF0B5FA05940694CDE90745BA
:101870006621414A0096CDE90121F800CDE9030433
:101880003D4800233D4A3EA1C4380AF0A2FA09AB04
:1018900000223DA13F4808F068FD3E4809AA3EA14C
:1018A000583809F002FA3B4809AA3FA12C3809F040
:1018B000FCF9384809AB10223FA1883809F0EBFC4D
:1018C00009A808F037FA3EA00BF094FFFEE70000ED
:1018D00049574447205245534554204F4B230D0A46
:1018E00000000000880E00205461736B310000007E
:1018F0004C1100205461736B320000001014002062
:101900005461736B33000000D41600205461736B74
:1019100034000000981900205461736B35000000FA
:101920005C1C00205461736B36000000201F0020F7
:101930005461736B37000000E42100209F0400080D
:101940005461736B38000000A82400204B04000889
:101950005461736B390000006C270020A30300085A
:101960005461736B31300000302A00203F030008BF
:101970005461736B31310000F42C00209102000897
:101980005461736B31320000675F666C61675F673B
:10199000727000007C3D0020675F6D757465785F34
:1019A0006F6C646500000000675F6D757465785F3B
:1019B0007573617274330000675F717565756500DA
:1019C0006E657665722072756E2E2E2E2E2E2E2E40
:1019D0000D0A00007047FEE7FEE7FEE7FEE77047EE
:1019E000704700000CB5002254490092019208682B
:1019F00040F4803008604FF4A043086800F40030E1
:101A000001900098401C0090019810B900989842ED
:101A1000F3D10868800334D5012001904748403055
:101A2000026842F0805202604548026842F4404237
:101A300002604248083002680260026842F40042D4
:101A40000260026842F4A0520260031F3D4A1A601D
:101A50000A6842F080720A600A689201FCD53A492D
:101A600040F205720A60016821F00301016001681B
:101A700041F0020101600168C1F381010229FAD13C
:101A80000CBD01920CBD314810B5016841F47001E4
:101A900001602A48016841F001010160274A0021E4
:101AA0000832116002682A4B1A400260031D294A5D
:101AB0001A60026822F48022026020480C30016023
:101AC000FFF790FF21494FF000608039086010BD9A
:101AD00070B51A4D083528681F4B204910F00C00CE
:101AE00004D05E10042803D0082803D00B601BE04C
:101AF0000E6019E0114A121D1068C0F3805410687E
:101B000000F03F0014B1B6FBF0F001E0B3FBF0F0E1
:101B100013681268C3F388135843C2F30142521C7E
:101B20005200B0FBF2F0086028680C4AC0F30310C2
:101B3000121D105C0A68C2400A6070BD0038024085
:101B40000070004008544007003C024088ED00E06F
:101B5000FFFFF6FE103000240024F4000C000020EB
:101B60002DE9FC410121302004F071FA01248DF8A7
:101B7000044000278DF806700325DFF84C804FF4F1
:101B8000C0668DF8055000968DF8074069464046BE
:101B900004F05AF88DF804408DF806708DF8055061
:101BA000A0038DF80740094C00906946204604F0D8
:101BB0004BF83146404604F0ACF86903204604F087
:101BC000A8F8BDE8FC8100000014024000100240AB
:101BD00010B50121402004F03AFA58484FF4007142
:101BE0000124016004710321417100218171C171DF
:101BF0000146534804F028F85248C0F8A44210BDEA
:101C00004E494FF400720A600871032048710020A9
:101C10008871C8714A4804F017B82DE9F05F814611
:101C200000240120FFF7ECFF464D0020C5F8A40278
:101C3000142006F074FC4FF0010BC5F8A4B2282064
:101C400006F04EFC0020FFF7DBFF4FF47A6609E058
:101C50000120641C06F044FCB44203D34FF0FF3073
:101C6000BDE8F09FD5F824020028F1D1002408E057
:101C70000120641C06F034FCB44202D36FF0010072
:101C8000EEE7D5F824020028F2D00024B24608E09E
:101C90000120641C06F024FC544502D36FF00200BE
:101CA000DEE7D5F824020028F2D10027A846002656
:101CB0000725002408E00120641C06F011FC5445AF
:101CC00002D36FF00300CBE7D8F824020028F2D04B
:101CD000282006F005FCD8F8240290B10BFA05F094
:101CE0003043C6B2002408E00120641C06F0F8FB73
:101CF000642C02D36FF00400B2E7D8F82402002865
:101D0000F2D16D1ED5D509F807607F1C052FCEDBFB
:101D1000C82006F0E5FB0021084619F80020401C09
:101D20001144C9B20428F8DB99F80400884201D1B3
:101D3000002095E76FF0050092E7000020000020EA
:101D4000001802400000434270B50121042004F055
:101D50007EF90121102004F07AF9254C4FF400603F
:101D6000002520600120207103206071A571E571BC
:101D70002146204803F068FF20202060257121467D
:101D80001D4803F061FF1D48C0F8AC5270BD70B52E
:101D90001A4D00240120C5F8AC02142005F52B755E
:101DA00006F09EFB00202860154D164E08E001202D
:101DB000641C06F095FBAC4202D34FF0FF3070BDBF
:101DC000D6F814020028F2D0002408E00920641C90
:101DD00006F086FBAC4202D36FF0010070BDD6F86E
:101DE00014020028F2D104EB4400400870BD00004A
:101DF000280000200008024000100240000041427C
:101E000040420F000000424210B50121202004F0A2
:101E10001EF908484FF4807101600121017103210E
:101E2000417100218171C1710146BDE81040024835
:101E300003F00ABF300000200014024010B5012159
:101E4000080204F02CF90121084604F000F9484882
:101E50004021002401600321017141718471C4712A
:101E60000146444803F0F0FE434804604460846047
:101E7000C46005F0D2F840480121183804600471AC
:101E800041718460046101753C4C0146204605F0B7
:101E900099F8002301220621204605F008F9204682
:101EA000BDE81040012105F0CFB810B50121042094
:101EB00004F0CDF80121880304F0F1F80621022096
:101EC00004F0AEF92A4840210838012401600021BD
:101ED000017110214171847105F020FA2448172105
:101EE0000C380170022141708170C470BDE810404F
:101EF00003F0EBBD38B507F044FE402005F05EFA74
:101F00004FF4807401280FD11D48D0F818026B4699
:101F10004FF0000208B1214600E08021194808F086
:101F20000EFD402005F053FA802005F047FA012805
:101F30000CD11548D0F81C12144809B1002100E05A
:101F40000121C0F8A012802005F041FA204605F0DA
:101F500035FA012808D16B4600220121094808F012
:101F6000EEFC204605F033FA07F016FE38BD0000FF
:101F70004400002000000240E40501200020014050
:101F8000000041427C3D00200080404200804242EF
:101F90002DE9F05F774D81460024D5F8200258B135
:101FA000E01EBDE8F09F0120641C06F099FAB442DF
:101FB00004D34FF0FF30F4E742F21076D5F8200258
:101FC0000028F0D0002441F2707608E00120641C63
:101FD00006F086FAB44202D36FF00100E1E7D5F8CB
:101FE00020020028F2D100274FF47A6AA846002682
:101FF00035464FF0010B002408E00120641C06F078
:102000006FFA544502D36FF00300CAE7D8F82002F4
:102010000028F2D000244FF42F7006F061FAD8F8AF
:10202000200268B10BFA05F03043C6B208E0012087
:10203000641C06F055FA544502D36FF00400B0E773
:10204000D8F820020028F2D16D1C082DD3DB09F846
:1020500007607F1C042FCADB4FF4167006F040FAAD
:1020600099F8001099F801000844FF2806D199F862
:10207000021099F803000844FF2802D06FF0050011
:102080008FE700208DE770B50121084603F0DFFFE0
:102090000121880304F003F80821002004F0C0F8AF
:1020A00035484FF4807500240560047103214171A7
:1020B0008471C4710146314803F0C6FD2E480C21DD
:1020C00008380560047141710124847105F026F916
:1020D000294817210C380170022141708170C470A9
:1020E000BDE8704003F0F1BC70B50121084603F073
:1020F000D6FF0121102003F0AAFF1F484FF4005122
:1021000000240160022101710321417184710125C4
:102110001B4EC5710146304603F096FD01220D218C
:10212000304603F005FE17486321174E416042F226
:10213000CF010180048144800146304604F0D6FA84
:1021400010496020143908804D80642088608C819B
:10215000304604F0B5FB0821304604F09AFC01211A
:10216000304604F03BFB3046BDE87040012104F0EE
:1021700027BE00000000404258000020000002403E
:10218000001002400806012000000140F0B5FE4D9D
:102190000022012311B1C5F8A43201E0C5F8A42240
:1021A000C5F89C22F94CFA4E0021C6F8BC2207065D
:1021B00002D5C4F8983201E0C4F89822C6F8BC32BF
:1021C0004006491C000EC9B20829EED3C5F89C325E
:1021D000C5F8A432F0BD10B50446B031C8B2002134
:1021E000FFF7D4FF102040EA14100021FFF7CEFFC4
:1021F00004F00F00BDE8104040F001000021C5E7E9
:1022000000B500218D20FFF7C1FF00211420FFF74A
:10221000BDFF0021AF205DF804EBB7E700B500215A
:102220008D20FFF7B3FF00211020FFF7AFFF002143
:10223000AE205DF804EBA9E730B5002505F1B0004C
:10224000C0B20021FFF7A2FF00210846FFF79EFF62
:1022500000211020FFF79AFF002401210020FFF742
:1022600095FF641CE4B2802CF7D36D1CEDB2082DF1
:10227000E4D330BDF0B5203A00240F468446D5B2F1
:102280007F2802D98F1CA446FFB239466046FFF76B
:10229000A2FFC04E04EB05100121305CFFF776FF72
:1022A000641CE4B2082CF5D37F1CF9B26046FFF73A
:1022B00092FF002404EB051030440121007AFFF75F
:1022C00065FF641CE4B2082CF4D3F0BD0346012082
:1022D00000E05843491EC9B2FBD270472DE9F047D0
:1022E0008046002708981D4691468A463C46460887
:1022F00021E0281B401EC1B20A20FFF7E7FFB9FB0F
:10230000F0F00A21B0FBF1F201FB120027B9691EBF
:102310008C4201DA30B101273030C2B206FB0480B2
:10232000C0B203E006FB0480C0B220225146FFF792
:10233000A1FF641CE4B2AC42DBD3BDE8F087F0B58A
:1023400017460E46044600250CE031462046FFF7AE
:1023500091FF0834E4B2782C02D90024B61CF6B2FE
:102360006D1CEDB27A5D002AEFD1F0BDF0B51546D7
:102370000E460746FFF72FFF8748002400EBC515E0
:102380000121285DFFF702FF641CE4B2202CF7D383
:10239000761CF1B23846FFF71EFF002428190121F0
:1023A00090F84000FFF7F2FE641CE4B2202CF5D355
:1023B000F0BD2DE9F0431F4694460E4681460025A8
:1023C000DDF81C8011E031464846FFF704FF4C461B
:1023D00007E018F8050001216D1CFFF7D7FE641C0B
:1023E000E4B26445F5D3761CF6B2BE42EBD3BDE849
:1023F000F0832DE9FC410121402003F028FE012556
:102400008DF8045003264FF400408DF80560002439
:1024100000908DF806408DF8074069465F4803F04C
:1024200013FC0121102003F012FE8DF804508DF8EA
:10243000056040278DF8064000978DF807406946F3
:10244000574803F001FC0121022003F000FE8DF843
:1024500004508DF805608DF8064000978DF8074010
:102460006946504803F0F0FB0121042003F0EFFD22
:102470008DF804504FF420708DF8056000908DF8B1
:1024800006408DF807406946474803F0DDFB474E9C
:10249000C6F89852642006F5267606F040F83460B7
:1024A000C82006F03CF835600021AE20FFF76EFE34
:1024B00000210846FFF76AFE00211020FFF766FEA4
:1024C00000214020FFF762FE00218120FFF75EFE21
:1024D0000021CF20FFF75AFE0021A120FFF756FE72
:1024E0000021C820FFF752FE0021A620FFF74EFE74
:1024F0000021A820FFF74AFE00213F20FFF746FEFB
:102500000021D320FFF742FE00210846FFF73EFEE0
:102510000021D520FFF73AFE00218020FFF736FE8C
:102520000021D920FFF732FE0021F120FFF72EFE17
:102530000021DA20FFF72AFE00211220FFF726FEF5
:102540000021DB20FFF722FE00214020FFF71EFEC6
:1025500000212020FFF71AFE00210220FFF716FEBF
:1025600000218D20FFF712FE00211420FFF70EFE40
:102570000021A420FFF70AFE0021A620FFF706FE97
:102580000021AF2014E00000000041420000424260
:1025900000004342A2F6000860000020001802403C
:1025A0000010024000040240000802400080404247
:1025B000FFF7ECFD0021AF20FFF7E8FDFFF73CFE41
:1025C00000210846FFF707FEBDE8FC8110B5012198
:1025D000480203F064FD0121084603F038FD294854
:1025E0001021002401600321017141718471C471C3
:1025F0000146254803F028FB2448046044608460B9
:10260000C46004F00AFD21480121183804600471F7
:1026100041718460046101751D4C0146204604F03F
:10262000D1FC002301220421204604F040FD204675
:10263000BDE81040012104F007BD10B501210220C2
:1026400003F005FD0121880303F029FD0721012086
:1026500003F0E6FD0B4880210838012401600021C9
:10266000017110214171847104F058FE0548172151
:102670000C380170022141708170C470BDE81040B7
:1026800003F023BA6C0C0020000002402C0601204D
:10269000002101402DE9F0410121080703F0F5FC7C
:1026A000012004F0A9FE012003F0C8FB412003F043
:1026B0008DFB0028FAD04FF4807003F076FC0120E7
:1026C00003F088FC04F020FFD1487F210025416001
:1026D000FF210560816004F0B2FF002005F07AFB65
:1026E00049F6991801260327404518D0C9482021EA
:1026F000C17047702321817006700146012005F0EA
:102700007CF8C4484021001FC170142101701521BC
:102710004170302181700146012004F0F4FF002057
:1027200005F0DBF9042005F0B7F9002005F0C5F944
:102730004FF48044204605F0E6FB012005F0CDF97A
:102740000121204605F093FB201105F0B9FB24027E
:10275000204604F03CFEAF480821001D04600571CE
:102760004171867104F0DAFDAA4808380770457097
:102770008570C67003F0A9F94146BDE8F04100201C
:1027800005F020BBF8B50646A3A10BF0BBF90A255E
:10279000002849D0A2A130460BF0AEF9A0A100203C
:1027A0000BF0AAF90BF09AF9A0F5FA60C0B2B0FBF1
:1027B000F5F105FB1101B0FBF5F0964C01EB0010B3
:1027C00097A1E07000200BF097F90BF087F9C0B2E9
:1027D000B0FBF5F105FB1101B0FBF5F001EB0010CA
:1027E00060708FA100200BF087F90BF077F9C0B271
:1027F000B0FBF5F105FB1101B0FBF5F001EB0010AA
:10280000A07087A100200BF077F90BF067F920701A
:102810002146012004F0F1FF20780090A37862782F
:10282000E17880A00AF0E6FF86A130460BF06AF955
:10283000002849D07AA130460BF05EF978A100203B
:102840000BF05AF90BF04AF9C0B2B0FBF5F1B0FB4E
:10285000F5F2704C05FB1101241F01EB02112170F0
:102860000C2801D3402000E00020E0706CA1002083
:102870000BF042F90BF032F9C0B2B0FBF5F105FBF9
:102880001101B0FBF5F001EB0010607064A10020B5
:102890000BF032F90BF022F9C0B2B0FBF5F105FBF9
:1028A0001101B0FBF5F001EB00105A49A070091FAF
:1028B000012004F028FFA3786278217801B063A09A
:1028C000BDE8F0400AF096BFF8BD2DE9F04104469E
:1028D0004FF480770021384605F098F850A1204643
:1028E0000BF00AF94EA100200BF006F90BF0F6F8F8
:1028F0000A2590FBF5F190FBF5F2454C05FB110123
:10290000103C01EB0211002621700C2802DB402054
:10291000E07000E0E67042A100200BF0EDF80BF053
:10292000DDF890FBF5F105FB110190FBF5F001EBF3
:10293000001060703AA100200BF0DEF80BF0CEF82A
:1029400090FBF5F105FB110190FBF5F001EB001098
:10295000A07031202073C007C4E901062C4A394613
:10296000103A012004F0B8FF0121080305F07FFAB6
:102970000121384605F04AF8384605F0A1FA4FF42F
:102980000034204604F023FD22480821001D046085
:10299000067141710124847104F0C0FC1D48292195
:1029A0000838017046708670C470BDE8F04103F0CD
:1029B0008CB838B54FF48054204605F08DFA0028C5
:1029C00010D014490120091F04F0EDFE6B460022CF
:1029D0000421254807F0B3FF204605F094FA600172
:1029E00004F0F5FC38BD38B54FF48044204605F0BE
:1029F00073FA01280BD16B46002202211A4807F016
:102A00009EFF204605F07FFA200204F0E0FC38BD6E
:102A10004C0601207C0C002044415445000000007D
:102A20002D00000073657420444154452032302548
:102A3000782D25782D257820202578206F6B0D0A9C
:102A40000000000054494D450000000073657420EB
:102A500054494D452025783A3A25783A3A25782048
:102A60006F6B0D0A200000007C3D00202DE9F04135
:102A70000121082003F0EBFA1A4C44F21100012561
:102A800020602571032060710026DFF85C80A6714C
:102A9000E5712146404603F0D7F80121102003F0EC
:102AA000D6FA8020114F20602146384603F0CCF83A
:102AB00026714FF40A4020602146384603F0C4F8DE
:102AC000680220602146404603F0BEF80848C0F87E
:102AD0009052C0F8B852C0F880520648C0F89C52D4
:102AE000BDE8F081880C0020000C0240001002407C
:102AF00000804142000042422DE9F0418046012120
:102B000088B0084603F0A3FA0121480403F0BDFA97
:102B1000FE4E07220221304603F00AF90722032164
:102B2000304603F005F902218DF814108DF81510C8
:102B300000240C258DF81640012704958DF8177098
:102B400004A9304603F080F8ADF80440ADF8064023
:102B5000ADF80840ADF80C40ED4CCDF80080ADF874
:102B60000A506946204603F0CCFB0121204603F0C1
:102B700039FC012240F22551204603F0D2FC2620E8
:102B80008DF8180003208DF819008DF81A008DF8C3
:102B90001B7006A802F099FF08B0BDE8F08110B5DF
:102BA000DB4C40F22551204603F0DDFC002818D014
:102BB000204603F041FCD74AC1B2D74B108888B1F8
:102BC000C0F30D04401C80B219551080C72801D9EC
:102BD00000201080197880B2814202D140F4004078
:102BE000108010BD19700120FAE70146C84802881C
:102BF0001206FCD503F01CBC70B50D460646002439
:102C000004E0305DFFF7F1FF641CA4B2AC42F8D3DE
:102C100070BD10B50D20FFF7E8FFBDE810400A2099
:102C2000E3E710B500231A4603E0845C6340521CBE
:102C3000D2B28A42F9DBD843C0B210BD2DE9F041CF
:102C4000B44806210A30FFF7D7FFB24E02E0012058
:102C500005F065FC30880004F9D53088DFF8B882CB
:102C6000C0F30D0598F8020008B1ACA016E0AFA0C3
:102C70000AF0C0FD0424B24FAD1E0CE018F8041099
:102C8000384603F0D5FB4021384603F062FC0128AA
:102C9000F9D1641CA4B2AC42F0DBAAA00AF0AAFDF0
:102CA00000203080BDE8F041C8219B480AF07CBF7D
:102CB0002DE9F04F974C9DB017340025217802265E
:102CC0002046891EFFF7ADFFA07108212046FFF7BF
:102CD00093FF173C02E0012005F021FC208800044E
:102CE000F9D58D4F2088A146B978C0F30D004FF07B
:102CF000000B00296BD1C01E84B20BE0395D93A09C
:102D00000AF078FD385DF1008840761E0543641EA8
:102D100076B2A4B2042CF1D88AA00AF06BFD7D49EA
:102D20000120891D04F0B7FD7A490120891C04F0B7
:102D30003AFD874E3078401C307086484068754CAC
:102D4000DFF814A2A41DA4F104081BAF854241D1F1
:102D50003B4600220821814807F0F1FDCAF8A4B2E1
:102D60002022102117A80AF017FF00231A4619463F
:102D70007B48009708F07EF817AA04210020FFF78F
:102D8000DEFA0B2204212820FFF7F0FA0C2204219E
:102D90003820FFF7EBFA0D2204214820FFF7E6FA6E
:102DA0001BAA00216E4808F095F998F8012098F8C0
:102DB000021098F80000CDE90302CDE9051560780E
:102DC0002278A1788DE80700E378327800E05FE0B0
:102DD00064A13EE00121CAF8A4123B460022402132
:102DE0005E4807F0ACFD2022102117A80AF0D4FE9F
:102DF00000231A4619465A48009708F03BF817AACC
:102E000004210020FFF79BFA0E2204212820FFF75F
:102E1000ADFA0F2204213820FFF7A8FA0D22042171
:102E20004820FFF7A3FA1BAA00214D4808F052F9E9
:102E300098F8000003AB98F8022098F8011083E896
:102E4000270060782278A1788DE80700E37832784F
:102E500053A107A80AF0DAFC3078642818D805F0E6
:102E6000C7F83C4F002407AD383F2959307804EBB0
:102E70008010384405F0D3F9092803D057A00AF090
:102E8000B9FCFEE7241D64B2402CEEDB05F0BCF873
:102E9000A9F800B0C82120480AF086FE1DB0BDE8A0
:102EA000F08F2DE9F0411B4C103420462178891E0B
:102EB000FFF7B7FE607107212046FFF79DFE154E14
:102EC00002E0012005F02BFB30880004F9D53088A2
:102ED000114FC0F30D054FF00008B878A8B946A00F
:102EE0000AF088FC0424AD1E05E0395D17A00AF045
:102EF00081FC641CA4B2AC42F7DB12A00AF07AFC9D
:102F0000A6F80080C821044882E085E00000024065
:102F100000440040900C002058060120C9A8C3E8D6
:102F2000C9E8B1B8CAA7B0DC0D0A00000D0AC9A8EB
:102F3000C3E8C9E8B1B8D0C5CFA2CEAA3A0D0A00FD
:102F4000001001400D0A0D0A000000002578000065
:102F50000000002000000208008042427C3D00206A
:102F6000243D00205B253033645D323025303278DB
:102F70002F253032782F25303278205765656B3A0F
:102F8000257820253032783A253032783A2530328B
:102F9000782069643D25782020310D0A000000006A
:102FA0005B253033645D3230253032782F25303266
:102FB000782F25303278205765656B3A25782025A3
:102FC0003032783A253032783A25303278206964C8
:102FD0003D25782020300D0A00000000464C41536A
:102FE000485F50726F6772616D576F7264206661DF
:102FF000696C0D0A000000000D0AC7EBC7F3B3C9E6
:10300000B9A6A3ACC6E44154513A307800000000A0
:103010000AF0CAFDFFF74CFEA6F80080BDE8F041BB
:10302000C82101480AF0C0BD5806012010B545F27C
:10303000555004F08FFF052004F08FFF40F69F707D
:1030400004F08EFF04F08FFFBDE8104004F090BF45
:1030500010B50121084603F018F81F4849F26F41E6
:103060004FF08044416046F2FF3101800021018130
:1030700041800146204603F039FB18491C200422F8
:1030800008704A708A700120C870084602F01DFD61
:1030900001221146204603F0B2FE2046BDE8104052
:1030A000012103F09BBB70B5002406F06AFD0121ED
:1030B0008D07284603F0B7FE012805D104F053FF21
:1030C0000121284603F0BBFE204605F0CBFCBDE8FD
:1030D000704006F061BD000020070120AF0C002009
:1030E0001CB50121022002F0B2FF4FF44070012410
:1030F00000908DF8044000208DF8060003208DF824
:1031000005008DF8074069467E4802F09DFD7E4827
:10311000C0F8A042C0F8A4421CBD70B5794801684F
:1031200021F440210160016841F480210160764C66
:103130000120C4F8A402C4F8A002042004F52874F5
:1031400005F0CEF900256560042005F0C9F9256079
:1031500070BD6C4810B5016821F440210160016820
:1031600041F480210160684C0020C4F8A002C4F83A
:10317000A402042004F5287405F0B2F901202060AF
:103180006060BDE81040042005F0AAB970B55D4844
:103190000024016821F440210160016801605A4D5A
:1031A0000126C5F8A462304605F09AF9C5F8A06278
:1031B000012005F095F90AE0641CE4B2012005F055
:1031C0008FF9FA2C03D9FFF7C4FF012070BDD5F8A1
:1031D00024020028F0D1C5F8A00270BD70B54A4C99
:1031E0000025C4F8A0524748016821F4402101603D
:1031F000016841F480210160C4F8A452022004F562
:10320000287405F06DF901202060022005F068F9AE
:10321000256070BD70B53C4C0026C4F8A0623948EA
:10322000016821F440210160016841F480210160BE
:103230000125C4F8A452022004F5287405F050F9C1
:103240002560022005F04CF9266070BD2DE9F041A3
:1032500005462C48016821F440210160016841F4D1
:1032600080210160284E0027C6F8A0723C464FF02E
:103270000108E809C6F8A4026806050E022005F058
:103280002FF9C6F8A082022005F02AF9C6F8A0722C
:10329000022005F025F9641CE4B2082CE9D3BDE84E
:1032A000F0812DE9F047814616480024016821F499
:1032B0004021016001680160134E254627464FF00A
:1032C0000108C6F8A072022005F00AF9C6F8A0822B
:1032D0006006040ED6F8240208B1641CE4B2012092
:1032E00005F0FEF86D1CEDB2082DEAD3B9F1000F20
:1032F00004D0FFF773FF2046BDE8F087FFF78AFF91
:10330000F9E70000000402400080404270B50C461E
:103310000546FFF702FFD020FFF798FFFFF736FFC3
:1033200050B92846FFF792FFFFF730FF2046FFF71E
:103330008DFFFFF72BFF18B1FFF70BFF012070BDCA
:10334000FFF707FF002070BDBC2801D3012110E06A
:10335000622801D302210CE02A2801D3032108E0CE
:10336000142801D3042104E00A2801D3052100E038
:1033700006211A20CAE710B504464FF47A70844239
:1033800001D9044602E0042C00D20424B0FBF4F07E
:10339000401EC1B21920FFF7B9FF6008BDE8104018
:1033A000D2E710B50446FFF7B8FED020FFF74EFF76
:1033B000FFF7ECFE2046FFF749FFFFF7E7FEFFF7B8
:1033C000ACFED120FFF742FFFFF7E0FE0020FFF741
:1033D00068FF0446FFF7BDFE204610BDC006010E83
:1033E0001C2093E7C006010E1B208FE710B5FFF7E6
:1033F00077FE80216B20FFF789FF642005F08FF8AE
:1034000000216B20FFF782FF0320FFF7EBFF002076
:10341000FFF7E4FF3220FFF7AEFF00213820FFF76F
:1034200075FF00216A20FFF771FF00212320FFF7BD
:103430006DFF80213720FFF769FF7520FFF7B1FF8F
:10344000682801D0012010BD01216B20FFF75EFF2D
:1034500000216C20FFF75AFF3220FFF78CFF00207D
:1034600010BD2DE9F0411C4615460F460646FFF7F4
:1034700054FE7006000EFFF7E9FEFFF787FE20B14D
:10348000FFF767FE0120BDE8F0813846FFF7DEFE5A
:10349000FFF77CFEFFF741FE012000EB4600C0B2C3
:1034A000FFF7D4FEFFF772FE08E0012D0CD00120DB
:1034B000FFF7F7FE6D1E04F8010BEDB2002DF4D1FD
:1034C000FFF747FE0020DEE70020F1E708B56B4676
:1034D000022241216820FFF7C4FFBDF8000040BA76
:1034E00000B20BF08BFD9FED3A1B53EC112B0BF050
:1034F0002DFC9FED391B53EC112B0BF07FFB0BF0D8
:103500004BFB00EE100ADFED360A20EE200ABDEE7E
:10351000C00A10EE100A00B208BD7CB514460D4674
:1035200006466B46062243216820FFF79AFF0028D3
:103530000BD1BDF8001049BA3180BDF8021049BA6C
:103540002980BDF8041049BA21807CBD7CB51446A1
:103550000D4606466B4606223B216820FFF781FF99
:1035600000280BD1BDF8001049BA3180BDF8021017
:1035700049BA2980BDF8041049BA21807CBD2DE9E3
:10358000F0411D4616460C460746FFF7C6FD780675
:10359000000EFFF75BFEFFF7F9FD60B92046FFF76D
:1035A00055FEFFF7F3FD00240BE0285DFFF74EFE0C
:1035B000FFF7ECFD18B1FFF7CCFD012063E7641CB9
:1035C000E4B2B442F1D3FFF7C4FD00205BE7000092
:1035D0000000000000407540A4703D0AD7434240FF
:1035E0000000C842C8234FF48062FE4940F6F6301E
:1035F00001F08EBE2DE9FF410446FBA002AB00683E
:103600000290FAA000680390F9A00668F9A0056886
:1036100004F00300195C8DF80010C4F3C1015A5C7A
:103620008DF80120C4F381129B5C8DF8023003AB4E
:10363000185C8DF80400585C8DF80500985C8DF8D6
:1036400006006A46032140F2264001F011FE4FF0C9
:10365000FF37E0BB01AA032140F22A4001F008FE37
:10366000A8BBCDE9006560070BD59DF8000040F0D0
:1036700001008DF800009DF8040040F001008DF875
:103680000400A0060BD59DF8010040F001008DF864
:1036900001009DF8050040F001008DF80500E005EF
:1036A0000BD59DF8020040F001008DF802009DF856
:1036B000060040F001008DF806006A4603214FF431
:1036C000886001F0D5FD10B901AA032100E004E0F3
:1036D00040F2314001F0CCFD18B1384604B0BDE8ED
:1036E000F081C54804810020F8E7F8B5C24909898E
:1036F00001F0030250F822404A0700D56442C1F3AA
:10370000C10250F822308A0600D55B42C1F3811213
:1037100050F82220C80500D55242B84984FB014028
:10372000850045EA947083FB014382FB0121950FDC
:1037300045EA8105010E8DF80010010C8DF801108D
:10374000010A8DF80210A40F8DF8030044EA8304E7
:103750006A4604214FF4747001F08AFD4FF0FF3681
:1037600088B9200E8DF80000200C8DF80100200A89
:103770008DF802008DF803406A4604214FF47570FD
:1037800001F076FD08B13046F8BD280E8DF8000036
:10379000280C8DF80100280A8DF802008DF80350DE
:1037A0006A4604214FF4767001F062FDF8BD2DE900
:1037B000FF41044603A801F0E0F9BDF80C00420CFB
:1037C000C3038D48018901F003004D0754F8200020
:1037D00000D54042C1F3C1058E0654F8255000D5EE
:1037E0006D42C1F38116C90554F8264000D56442E4
:1037F000A0FB0367C11701FB037100FB02108100EE
:1038000041EA9670A5FB0367E91701FB037105FB0D
:1038100002118D0045EA9671A4FB0367E51705FBCD
:10382000037304FB0232930043EA9672030E8DF891
:103830000030030C8DF80130030A8DF802308DF84A
:103840000300080E8DF80400080C8DF80500080A26
:103850008DF80600100E8DF80800100C8DF8090088
:10386000100A8DF80A008DF807108DF80B206A46B3
:103870000C214FF4257001F0FBFC2FE730B5044616
:103880005FA185B007C98DE807004FF0FF35C82C50
:1038900016D8C820B0FBF4F1491E080A8DF80C00B8
:1038A0008DF80D1003AA022140F2162001F0E0FC71
:1038B00030B96A460C2140F6C12001F0D9FC10B1A4
:1038C000284605B030BD4C4884810020F9E74A49BC
:1038D000898901800020704770B504462DED028B68
:1038E00082B040074FF0FF357AD0B1F5C86F77D876
:1038F00000EE101AB8EE400ADFED440A01A880EE8F
:10390000208A01F0D8F89DF80400022806D0042887
:1039100010D0082835D0102862D13EE09FED3C0A37
:1039200028EE000ABCEEC00A10EE100A9FED390A1C
:1039300082B20AE09FED380A28EE000ABCEEC00A07
:1039400010EE100A9FED350A82B228EE000A6E468C
:10395000BCEEC00A10EE100A81B2100A8DF8000009
:103960008DF80120080A8DF802008DF80310E00799
:1039700026D0324602214FF4EA7001F079FC78BB80
:1039800017E09FED270A28EE000ABCEEC00A10EEF1
:10399000100A9FED240A82B2D7E79FED230A28EE92
:1039A000000ABCEEC00A10EE100A9FED200A82B297
:1039B000CBE7B21C02214FF4927001F059FC78B9A8
:1039C000A00736D56A4602214FF4EC7001F050FC96
:1039D00030B9B21C02214FF4947001F049FC27E089
:1039E00037E0000092FC00084CCD6C000CC92C00A4
:1039F00036567600264666002C07012009E3CA02E7
:103A0000FEF2ABC4AAF1DFDFBBAFDFDF000048434B
:103A10000000804600004046000000460000C0450F
:103A20000000804500004045000000450000C04403
:103A300078B9600712D56A4602214FF4EE7001F0A2
:103A400017FC30B9B21C02214FF4967001F010FC43
:103A500020B1284602B0BDEC028B70BD0020F9E712
:103A600008B500218DF80010C10702D030218DF873
:103A70000010810705D59DF8001041F00C018DF86C
:103A80000010400705D59DF8000040F003008DF8B8
:103A900000006A4601214FF4A47001F0E9FB08BD63
:103AA00008B560B1042800D90420401E8DF800003C
:103AB0006A46012140F24F1001F0DAFB08BD0120F7
:103AC000F3E70521B0FBF1F008B5010A8DF800100D
:103AD0008DF801006A4602214FF4EF7001F0C8FB37
:103AE00008BD0521B0FBF1F008B5010A8DF8001002
:103AF0008DF801006A4602214FF4ED7001F0B8FB29
:103B000008BD4FF47A7290FBF2F008B54843010EFD
:103B10008DF80010010C8DF80110010A8DF80210CB
:103B20008DF803006A4604214FF4AE7001F0A0FB4B
:103B300008BD0521B0FBF1F008B5010A8DF80010B1
:103B40008DF801006A4602214FF4AD7001F090FB40
:103B500008BD0521B0FBF1F008B5010A8DF8001091
:103B60008DF801006A4602214FF4AC7001F080FB31
:103B700008BD38B504004FF0FF3506D06A46042171
:103B80004FF4587001F09CFB08B1284638BD0098EE
:103B90009DF8031000BA20F0FF00084320600020C9
:103BA00038BD08B5010E8DF80010010C8DF801101C
:103BB000010A8DF802108DF803006A4604214FF4C3
:103BC000587001F055FB08BD38B504004FF0FF35C3
:103BD00006D06A4604214FF4717001F071FB08B100
:103BE000284638BD009800BA20F0FF019DF8030078
:103BF000014301EB810080002060002038BD1421CA
:103C0000B0FBF1F008B5010E8DF80010010C8DF835
:103C10000110010A8DF802108DF803006A46042194
:103C20004FF4717001F024FB08BD08B560B120208D
:103C30008DF8000028208DF8010030208DF802005A
:103C400038208DF8030004E0A3220421684609F01F
:103C5000A3FF6A46042140F69E2001F009FB00F014
:103C60005AFB08BD08B560B1C0208DF80000C22025
:103C70008DF80100C4208DF80200C6208DF80300E5
:103C800004E08B220421684609F086FF6A4604217D
:103C900040F6982001F0ECFA00F03DFB08BD0EB5AF
:103CA0004FF4976308B1E2A000E0E4A007C88DE8F4
:103CB00007006A460921184601F0DAFA0EBD3EB542
:103CC000044602208DF80000CA208DF80100E32090
:103CD0008DF8020009208DF803006A46042168204F
:103CE00001F0C6FAA3208DF80000610609D5C021B5
:103CF0008DF80110C8218DF80210C2218DF8031033
:103D000005E08DF801008DF802008DF8030014F431
:103D1000C07F09D0C4218DF80410CC218DF8051086
:103D2000C6218DF8061005E08DF804008DF8050019
:103D30008DF806008DF808008DF807008DF8090051
:103D40006A460A2140F6A72001F092FAA0074FF038
:103D5000D80503D020208DF8000001E08DF8005038
:103D60006A46012140F6B62001F082FAA00601D58C
:103D7000012000E00020FFF792FF14F4C07F1ED066
:103D8000E0050AD5B2208DF800008B208DF80100E7
:103D9000B6208DF802009B2009E0B0208DF80000CD
:103DA00080208DF80100B4208DF8020090208DF85D
:103DB00003006A46042140F6A22001F059FAE00708
:103DC0004FF40B6323D0F8208DF800006A460121E0
:103DD000184601F04DFAFA210720FFF77DFD072074
:103DE000FFF73EFE0120FFF75BFE6420FFF769FE50
:103DF0004FF4FA70FFF775FEC8219348FFF781FE74
:103E00002820FFF796FE0A20FFF7A3FE06E08DF8B4
:103E100000506A460121184601F02AFAA00703D58E
:103E2000D9208DF8000001E08DF800506A4601218C
:103E300040F23D7001F01CFA600701D5012000E05E
:103E40000020FFF70FFFE00601D5012000E0002071
:103E5000FFF7EBFE7D4D44F00800688100F05BFA4F
:103E60000020A873600601D50620A87314F4C07F53
:103E700002D0A87B801DA87314F0140F02D0A87B79
:103E80001030A873A00702D0A87B001DA8730020E3
:103E90003EBD6E49498901800020704700B56CA184
:103EA00087B00EC98DE80E006CA10DF10C0C0EC987
:103EB0008CE80E0040F68223012807D0022803D0A8
:103EC0004FF0FF3007B000BD6A4600E003AA0B21A7
:103ED000184601F0CDF9F5E72DE9FF4F89B01646F8
:103EE000DDE916520024DFF864810F4681462C80FC
:103EF000A24698F80E00694600F039FF4FF0FF3BEC
:103F000018B158460DB0BDE8F08FB8F80A0010F0AF
:103F1000140F3ED0009909BA21F0FF0C9DF8031050
:103F20004CEA010CC6F800C0019909BA21F0FF0360
:103F30009DF807100B43736002999DF80B2009BA96
:103F400021F0FF011143B160039A9DF80F4012BAAE
:103F500022F0FF022243F26010241B1409144FEADE
:103F60002C46121416FB06F613FB036311FB01F13A
:103F700012FB02111944A1F17061B1F1007F04D963
:103F800000F0C9F9A5F800A0BBE7298841F48071C9
:103F9000298041066A460ED51119A41D0B885BBA0B
:103FA0003B804B885BBA7B80898849BAB980298875
:103FB00041F00801298010F4C07F11D01119A41D0F
:103FC0000B885BBAA9F800304B885BBAA9F80230BD
:103FD000898849BAA9F80410298841F0700129801C
:103FE000800718D01444E07800F0C00500F03F01CD
:103FF0006078C00707D0C80801F00701D8F8002092
:10400000491C02B190476078000704D5D8F8041025
:1040100009B1A80988470C9800F025FC002071E739
:104020000A4908600020704708494860002070472E
:10403000B8AAB38DB4980D355D000000B8AAAAAA3D
:10404000B088C3C5C700000009E3CA022C070120DD
:10405000D8B1B9F38BA391B609B4D900DAB1B9F3E9
:104060008BA391B6DAB4DA00F8B5FE4C00232246F1
:1040700094F82460D2E900125D1E56B190B102207E
:104080000DE01078C97B6B460122FFF778FA60B922
:104090000DE0A67A4EB128B1607C58B901208DF8A8
:1040A0000000EEE78DF80030EBE72846F8BD9DF8FC
:1040B000000060740020F8BD38B50024E94D18E018
:1040C0002868C27AA24212D0407DA0420FD0087860
:1040D0006B4601222146FFF7C4F910B14FF0FF30C3
:1040E00038BD9DF800202146DFA009F083FB641C49
:1040F000E4B269680879A042E2D8002038BDD94A04
:1041000030B40B4611684FF0FF34CD7A854206D0AB
:10411000497D814203D051680A79824202D8204603
:1041200030BC70470C780146204630BC0122FFF7B6
:1041300098B938B5CB4D044695F82300A04201D17B
:10414000002038BD0CB1302000E000208DF80000C8
:10415000A87C28B19DF8000040F002008DF8000016
:1041600095F8220028B19DF8000040F080008DF8FD
:10417000000028686B460122017D68680078FFF71F
:10418000FEF910B14FF0FF3038BD85F82340D7E776
:10419000F8B5044610F0700F4FF0000601D0012072
:1041A00004E014B18DF8006002E040208DF80000BA
:1041B000AC4D6B4601222868817C68680078FFF767
:1041C000DEF94FF0FF3760BB9DF8000020F04000A3
:1041D00028738DF80060600602D404208DF800007A
:1041E000A00605D49DF8000040F002008DF8000004
:1041F000E00605D49DF8000040F001008DF80000B5
:10420000200705D49DF8000040F038008DF800002C
:1042100028686B460122C17C68680078FFF7AFF917
:1042200010B1AE723846F8BD24B1082C02D000207F
:10423000FFF77FFFAC722E75322004F070F900207A
:10424000F8BDF8B5874D0446A87CA04201D10020F6
:10425000F8BD84484FF0FF366B46D0E900104FF0B0
:1042600001020979007834B3FFF7FBF8D8BB9DF859
:1042700000006B4620F020008DF800002868012225
:10428000017968680078FFF77AF960BB032004F0D1
:1042900046F902208DF8000095F8220070B38220C4
:1042A0002AE028686B460122017D68680078FFF7E4
:1042B00066F9C0B92DE0FFF7D4F8A0B9A87AC00715
:1042C0009DF8000002D040F0200001E020F0200026
:1042D0008DF8000028686B46012201796868007833
:1042E000FFF74DF908B13046F8BD032004F017F987
:1042F00095F8220000B180208DF8000095F8230089
:104300000028CED09DF8000040F030008DF800006D
:10431000C7E7AC749BE7F8B5524D4FF0FF36A87A6B
:1043200000287CD000248DF8004028686B460122CC
:10433000C17B68680078FFF722F900286FD12868F0
:104340006B460122417968680078FFF718F9002868
:1043500065D128686B460122017968680078FFF70B
:104360000EF900285BD195F82400E0B30C208DF8FD
:10437000000028686B460122017968680078FFF721
:10438000FEF800287DD1322004F0C9F8C0208DF855
:104390000000A87AC00702D0E0208DF8000028684D
:1043A0006B460122017968680078FFF7E8F8002879
:1043B00067D1687C18B102208DF8000001E08DF80B
:1043C000004028686B460122C17B68680078FFF7CF
:1043D000D6F820BB8DF8004028686B460122417951
:1043E000686800783DE0FFE704208DF80000286849
:1043F0006B460122017968680078FFF7C0F870B950
:10440000A87C88B9A87AC0070ED060208DF800007B
:1044100028686B46012201796868007800E02BE08B
:10442000FFF7ADF840BB01E04020EFE7322004F099
:1044300076F8687C18B101208DF8000001E08DF855
:10444000004028686B460122C17B68680078FFF74E
:1044500096F888B92868034B4179686810330122BF
:1044600000780AE0B40C0020252335783A20252373
:1044700035780D0A0000000003E0FFF780F80028FF
:1044800000D03046F8BD2DE9F041002620F00104AF
:10449000FE4D95F8240010B10020BDE8F081A87A07
:1044A0004FF0FF3838B120402F7C2874A04200D054
:1044B000464624B901E04046EFE7287D40B101209F
:1044C000FFF7D2FD3CB1FFF726FF20B12F74F2E7D2
:1044D0000020FFF7C9FD3046DFE738B5EB4C4FF061
:1044E000FF35A17A31B3BC2801D3012010E0622846
:1044F00001D302200CE02A2801D3032008E014286D
:1045000001D3042004E00A2801D3052000E006209E
:104510008DF80000E07A9DF80010884201D100205B
:1045200038BD20686B460122817860680078FFF70B
:1045300026F808B1284638BD9DF80000E072EEE785
:104540002DE9F84304464FF0FF39282844D80727BF
:10455000CE4D00267CB10120FFF7EBFD20208DF829
:1045600000004FF00108012C17D0052C18D88DF849
:10457000018005201FE00020FFF7DBFD8DF80060C3
:104580008DF8017028686B460222817C686800788B
:10459000FEF7F5FF00BB2E7529E08DF80160E8E716
:1045A000142C04D802208DF801000A2003E0032017
:1045B0008DF801001420FFF790FF9DF801006B4675
:1045C00007EB80108DF8010028680222817C686862
:1045D0000078FEF7D4FF10B14846BDE8F883082004
:1045E000A8722E7385F814800020FFF74CFF00207E
:1045F000F3E7F8B5A54D04464FF0FF37A87A28B386
:1046000095F8240010BB287D48B12CB1282C03D884
:10461000E0B2FFF795FF24E00020FFF791FF4FF491
:104620007A76042C01D2042402E0B44200D9344644
:10463000B6FBF4F0401E8DF8000028686B4601229E
:10464000417868680078FEF79AFF08B13846F8BDEF
:104650009DF80000401CB6FBF0F0E8814008FFF731
:104660003CFF0020F8BD38B5884C4FF0FF35A17AEB
:1046700019B3022806D0042806D008280ED0102826
:104680001BD10DE0002000E008208DF80000607ACA
:104690009DF80010B0EBD10F04D005E01020F4E736
:1046A0001820F2E7002038BD20686B460122C1794E
:1046B00060680078FEF763FF08B1284638BD9DF8B2
:1046C0000000C0086072EDE738B5704C4FF0FF3560
:1046D000A17A31B3FA2809D0B0F5FA7F08D0B0F545
:1046E0007A7F0FD0B0F5FA6F1BD10DE0002000E00B
:1046F00008208DF80000207A9DF80010B0EBD10F53
:1047000004D005E01020F4E71820F2E7002038BDBF
:1047100020686B460122817960680078FEF72FFFE0
:1047200008B1284638BD9DF80000C0082072EDE7AA
:104730002DE9FC41554C80208DF8000020686B4627
:104740000122817C60680078FEF719FF4FF0FF3787
:10475000002832D1642003F0E2FE00258DF80050DD
:1047600020686B460122817C60680078FEF707FFB5
:10477000002870D120686B460622817D6068007831
:10478000FEF76FFE002866D19DF805009DF8031026
:10479000C007400F01F0010140EA41019DF801000E
:1047A0004FF0010600F00100014309D0012905D0B6
:1047B000022915D036A009F01DF84CE0E67410E08F
:1047C00020686B460122C17860680078FEF749FED8
:1047D00040BB9DF8000010F00F0020D0042822D02C
:1047E000E574FF2004F80A0F4FF6FF7104F8020C7D
:1047F00004F8010C6070A180A0712072A67026766A
:104800006576E572A572E56025616561A576E57658
:10481000A5834FF4FA60FFF757FF18B907E0264861
:1048200008F0E8FF17E025A008F0E4FFC6E7022043
:10483000FFF719FF78B92A20FFF74FFE58B9322049
:10484000FFF7D7FE38B90020FFF71DFE18B900208A
:10485000FFF7F7FC10B13846BDE8FC810020FFF7F8
:1048600097FC0020F8E770477CB5044607484FF0F6
:10487000FF35817A11F0700F31D0016840686B46C6
:10488000097B00780622FEF7ECFD27E0B40C00203F
:10489000556E737570706F7274656420736F667493
:1048A000776172652070726F6475637420726576CB
:1048B0002025642E0A000000000C010848616C6687
:1048C0002073656E7369746976697479207061729A
:1048D0007420666F756E642E0A00000008B12846C9
:1048E0007CBDBDF8000040BA2080BDF8020040BA8F
:1048F0006080BDF8040040BAA08000207CBD7CB57B
:104900000446FE484FF0FF35817A090708D5016853
:1049100040686B46497B00780622FEF7A2FD08B18D
:1049200028467CBDBDF8000040BA2080BDF80200DA
:1049300040BA6080BDF8040040BAA08000207CBD71
:10494000F8B5EE4D04464FF0FF36A87A40B128681E
:104950006B460222817B68680078FEF782FD08B111
:104960003046F8BDBDF8000040BA01B26868B0F941
:104970000820C08800EE102AF8EEC00A00EE101AD7
:10498000B8EEC00A70EE600A00EE100AB8EE401AE7
:1049900080EE810ADFEDDA0A30EE200ADFEDD90A77
:1049A000002020EE200ABDEEC00A84ED000AF8BD0A
:1049B0002DE9FC4104004FF0FF3862D0206820B997
:1049C000606810B9A06800285CD0CC4F03226B4609
:1049D000786811460078FEF744FDE0BB9DF80010B2
:1049E000082000EB111101F00F029DF801109DF855
:1049F000023000EB111100EB1310236840325B0012
:104A000093FBF2F216B2626801F00F0152004031DE
:104A100092FBF1F10DB2A16800F00F0049004030A7
:104A200091FBF0F004B2786806226B4600781146DC
:104A3000FEF717FD78B9BDF80000BDF8021040BAC6
:104A4000BDF80420304449BA52BA030A294422442A
:104A50008DF8003000E014E08DF80100080A8DF8B0
:104A60000200100A8DF804008DF803108DF805205F
:104A7000786806226B4600781146FEF780FD002814
:104A800000D04046E8E69D49097A39B1012907D0AE
:104A900002290AD003290BD0002103E0FA2101E00A
:104AA0004FF4FA710180002070474FF47A71F9E7F2
:104AB0004FF4FA61F6E7914A517A41B1012908D0E1
:104AC00002290FD003290FD04FF0FF307047022189
:104AD00000E004210170D17C11B10178490001701E
:104AE000002070470821F5E71021F3E78349C97AD0
:104AF000072913D2DFE801F01204060A0C0E100099
:104B0000BC2100E062210180002070472A21FAE7E1
:104B10001421F8E70A21F6E70521F4E70021F2E77E
:104B2000764991F8242012B14FF0FF307047C989BF
:104B300001800020704700210180481E70474FF01F
:104B4000FF3070476D49097A41B1012909D0022926
:104B50000DD003290ED04FF0FF3070479FED6A0A49
:104B600001E09FED6A0A80ED000A002070479FED8A
:104B7000680AF8E79FED670AF5E7604A517A41B1A4
:104B8000012909D0022911D0032912D04FF0FF309A
:104B900070474FF4804101E041F69C710180D17C67
:104BA00011B1018849080180002070474FF48051FD
:104BB000F4E74FF40061F1E75049097C01700020EF
:104BC00070474E49897A01B1012101700020704778
:104BD00038B5054649484FF0FF34817A41B1016844
:104BE00040686B46097C00780222FEF73AFC08B167
:104BF000204638BDBDF8000040BA2880002038BDEE
:104C00002DE9FE4F88463D498146002491F8240055
:104C10001E4625464FF0FF3BD0BB00203070887AFF
:104C2000B0B3087CA0B3420600D50224820600D5AA
:104C3000A41CC20600D5A41C000700D5A41D8A46EA
:104C40000968DAF804006B46897A00780222FEF7D8
:104C500008FCE8B9BDF8000047BAA7425CD3DAF80F
:104C600004004188B7EB510F13D9DAF8001000782F
:104C70006B46497C0122FEF7F4FB48B99DF8000021
:104C8000C00606D5FFF747FB6FF00100BDE8FE8FB9
:104C90000AE0DAF80010DAF804006B46C97A007806
:104CA0002246FEF7DEFB08B15846EFE7B7FBF4F00B
:104CB0000C99401E0870002030706CB39AF81010E8
:104CC00050460A07694613D5BDF80020062552BA9A
:104CD000A8F80020BDF8022052BAA8F80220BDF8BA
:104CE000042052BAA8F80420327842F00802327048
:104CF000A5421CD0027C520619D50EE0B40C00204F
:104D000000000C4200008047000003430000834283
:104D1000333303423333834127E04A19AD1C1288F1
:104D200052BAA9F80020327842F040023270A5420F
:104D30000CD0027C920609D54A19AD1C128852BAD1
:104D4000A9F80220327842F020023270A5420CD03D
:104D50009AF81000C00608D54819008840BAA9F88A
:104D60000400307840F01000307000208EE72DE90C
:104D7000F843FA4E0546174696F8240089464FF048
:104D8000FF3888B3B07A78B330686B460222817AF4
:104D900070680078FEF765FB30BBBDF8000044BAD0
:104DA000AC4202D2002038701EE070684188B4EB3B
:104DB000510F10D9316800786B46497C0122FEF70B
:104DC00050FB88B99DF80000C00604D5FFF7A3FA90
:104DD0006FF001000CE43068EAB24B46C17A7068AB
:104DE0000078FEF73EFB08B14046F3E7B4FBF5F070
:104DF000401E38700020EDE7D84981F822000020DD
:104E000070472DE9FE4F05460120D44E8DF8000075
:104E10004FF000088DF8018030680C461746817C01
:104E200070686B4602220078FEF7A9FB4FF0FF3A4C
:104E300000287AD1C82003F072FB8DF8008030681A
:104E40006B460122C17B70680078FEF798FB002852
:104E5000EFD130686B460122417970680078FEF727
:104E60008EFB0028E5D130686B460122817C70689A
:104E70000078FEF784FB0028DBD130686B46012206
:104E8000C17D70680078FEF77AFB0028D1D13068C8
:104E90006B460122017970680078FEF770FB0028EC
:104EA000C7D14FF00C098DF8009030686B46012295
:104EB000017970680078FEF762FB002835D10F2079
:104EC00003F02DFBB06A6B460122407A8DF800009A
:104ED0003068817870680078FEF751FB002824D193
:104EE000B06A6B460122007A8DF800003068417884
:104EF00070680078FEF743FB002873D1B06A807AAF
:104F00000FB140F0E0008DF8000030686B460122E0
:104F1000817970680078FEF732FB002862D12FB1EA
:104F2000B06AC07A40F0E00001E049E018208DF856
:104F3000000030686B460122C17970680078FEF786
:104F40001EFBE8BB17B1C82003F0E9FA40208DF83A
:104F5000000030686B460122017970680078FEF726
:104F60000EFB68BB78208DF8000030686B4601228C
:104F7000417970680078FEF702FB08BB322003F02D
:104F8000CEFA8DF80080306847466B4641797068EC
:104F900001220078FEF7F3FA90B931687068B046E4
:104FA000897A00786B460222FEF75BFA40B9BDF8B9
:104FB0000000AF6040BAB0FBF9F0C6B26F6000E02D
:104FC00010E02F60A76067602760002738E0D8F8FE
:104FD0000010D8F804006B46C97A00780C22FEF75E
:104FE00040FA08B1504651E6BDF80000236840BAC7
:104FF00002B2BDF802001A4440BA01B2BDF8040082
:105000002260626840BA11446160A16800B208443D
:10501000A060BDF806002B6840BA02B2BDF80800D7
:105020001A4440BA01B2BDF80A002A606A6840BA60
:1050300011446960A96800B208447F1CFFB2A860EF
:10504000B742C4D328688322C117090441EA10413A
:105050000004002308F0AAFB3246002308F0A6FB58
:10506000286068688322C117090441EA10410004DE
:10507000002308F09BFB3246002308F097FB686092
:10508000A8688322C117090441EA104100040023E3
:1050900008F08CFB3246002308F088FBA8602068EB
:1050A0004FF40065C117090441EA104100042A4683
:1050B000002308F07BFB3246002308F077FB2060DA
:1050C00060682A46C117090441EA10410004002320
:1050D00008F06CFB3246002308F068FB6060A068B3
:1050E0002A46C117090441EA10410004002308F0D0
:1050F0005DFB3246002308F059FBA060002802DD6A
:10510000A0F5803001E000F58030A0600020BDE512
:1051100038B5124C94F8241081421DD0002510B3EC
:1051200094F82500E0B10020FEF79EFF0020FFF775
:1051300088F8E08CFFF75DFA8DF8005060686B46E8
:10514000012200782321FEF71AFA012084F82400B6
:10515000FEF78AFFFFF7DFF8002038BDB40C00200F
:105160004FF0FF30F9E70020FEF77EFF207C8DF83E
:10517000000060686B46012200782321FEF7FFF9EA
:1051800084F82450E6E72DE9F047F94E82468AB0CC
:1051900096F824000F4620B10020FFF7B9FF012543
:1051A00000E0002507A8FFF76EFC06A8FFF783FCC8
:1051B00009A8FFF79BFC08A8FFF7B2FC96F80A9035
:1051C00096F810800024002239465046FFF719FE59
:1051D00010B1641C022CF6DB022C1AD00024012230
:1051E00003A96846FFF70DFE10B1641C022CF6DB24
:1051F000022C0ED003A9384600F036FBC7B2694630
:10520000504600F070FB10F0FF0F4FF0000402D08A
:1052100002E0002403E001240FB944F00204FF205F
:1052200030727072F0724FF6FF71F181B0723074AB
:1052300001203073BDF81C00FFF746FA9DF81800F6
:10524000FFF711FABDF82400FFF747F9BDF8200079
:10525000FFF7CFF94846FEF79BFF4046FFF713F9EB
:1052600015B10120FFF754FF0AB02046BDE8F087D2
:10527000F8B517000D464FF0FF341FD0BC4EB17A81
:10528000E1B1010A8DF80010C0B28DF8010041199A
:1052900070684289914211D8316800786B46097E66
:1052A0000222FEF76CF948B93068EAB23B46417D0C
:1052B00070680078FEF763F9002800D02046F8BD3A
:1052C000F8B517000D464FF0FF341FD0A84EB17A45
:1052D000E1B1010A8DF80010C0B28DF8010041194A
:1052E00070684289914211D8316800786B46097E16
:1052F0000222FEF744F948B93068EAB23B46417DE4
:1053000070680078FEF7ADF8002800D02046F8BDA0
:105310002DE9FF4FDFF858A2054685B09AF8250021
:10532000914688464FF0FF3BC0BBB8F1000F35D027
:1053300000241FE0281B102800DD102086B208EB97
:1053400004073A4631462046FFF792FF30BB6A46D3
:1053500031462046FFF7B4FF00BB38463246694667
:1053600008F0E2FB20B16FF0010009B0BDE8F08F5A
:10537000A01984B2AC42DDD34FEA19208DF8100099
:105380008DF81190DAF80000544604AB817EDAF80B
:10539000040002220078FEF7F2F808B15846E4E76C
:1053A000012084F825000898E0840020DDE770499A
:1053B00091F824100170002070474FF0FF307047C3
:1053C0004FF0FF3070474FF0FF3070472DE9F84F36
:1053D000674C0F4604F1160115004FF0FF3B8A465B
:1053E0004FF000094FF0010877D0B0F5FF5F01D909
:1053F000FF2605E0202801D2012601E0C0F3471670
:1054000007B90127282D6AD8607DF0B994F82400E7
:1054100028B10020FFF77CFE84F8208001E084F8AA
:1054200020905046FFF72FFB51481830FFF743FB01
:105430004F481A30FFF75AFB4D481C30FFF770FBFE
:10544000A07AA0774A48217CC1770020FEF70CFEA5
:105450000020FFF775F88DF8009020686B46012258
:10546000817860680078FEF78AF8002837D14020FC
:105470008DF8000020686B460122C17B60680078CF
:10548000FEF77DF850BB8DF800608DF80170206844
:105490006B460222017A60680078FEF770F8E8B97E
:1054A000052003F03CF8607A072606EBC0008DF873
:1054B000000020686B460122C17960680078FEF721
:1054C0005EF858B920208DF80000012D08D0052D78
:1054D0000AD840468DF801800DE01DE01FE04CE049
:1054E00048468DF8019006E0142D01D8022000E016
:1054F00003208DF80100C0B206EB80108DF801008A
:1055000020686B460222817C60680078FEF737F8DD
:1055100028B984F8158027E000200A5C3AB3FF2000
:1055200020726072E0724FF6FF71E181A072207408
:1055300084F80C80A07FFEF72BFEE08AFFF7C4F80A
:10554000207EFFF790F8608BFEF7C7FFA08BFFF778
:1055500050F8E07FFEF797FF94F8200010B101208B
:10556000FFF7D6FD84F815900020BDE8F88F01E024
:10557000B40C0020401C0C28CFD35846F5E700B5EA
:1055800089B002A905A8FFF7FEFD032802D001207B
:1055900009B000BD6846FFF7D5FA9DED050A05A8DC
:1055A000F8EEC00A9DED000A60EE800AFDEEE00A0A
:1055B000CDED050ADDED060AF8EEE00A60EE800AA0
:1055C000FDEEE00ACDED060ADDED070AF8EEE00A91
:1055D00020EE800ABDEEC00A8DED070AFEF785F8C1
:1055E00001A8FFF7CAFABDF80400029941430291ED
:1055F0000399414303910499414302A80491FEF7A2
:10560000D6F80020C4E790F90010002902DD4FF021
:105610000000704702DA4FF00400704790F9011063
:10562000002902DD4FF00100704702DA4FF005005B
:10563000704790F90200002802DD4FF00200704729
:1056400002DA4FF0060070474FF00700704700B5D0
:105650000246FFF7D8FF0346D01CFFF7D4FF43EA0A
:10566000C003901DFFF7CFFF43EA801080B200BD5A
:1056700010B5FDF735FDFFF75BF888BB7820FEF726
:1056800087FD10F0FF0F01D0012010BD7820FEF73C
:10569000FAFE10F0FF0F01D0022010BD6420FEF7CB
:1056A000A8FF10F0FF0F01D0032010BDFDF79AFFF7
:1056B00010F0FF0F01D0042010BDE448FFF7C7FF32
:1056C000FDF798FF10F0FF0F01D0052010BD40F24C
:1056D0007310FEF7F4FA10F0FF0F02D0062010BD91
:1056E00014E06420FEF7CAF810F0FF0F01D0072085
:1056F000F5E7FFF744FF08B10820F0E70120FFF7C6
:1057000007FD10F0FF0F01D00920E8E70020E6E7D1
:1057100070B50D462DED0C8B8EB006460CA906A873
:105720001446F7EE00BACDE900010BAB02AA09A9B5
:1057300007A8FEF7D1FB20B101200EB0BDEC0C8B09
:1057400070BDBDF81800C0057ED59DED020AF8EECB
:10575000C00A9FEDBF0AB0EE00CA60EE809ADDED90
:10576000030AF8EEE00A69EE8CCA60EE808ADDED8D
:10577000040AF8EEE00A20EE808ADDED050AF8EE74
:10578000E00A20EE809AB8EE000A28EE80BA2BEEEE
:10579000090A0CEE880A10EE100A09F007FF41EC26
:1057A000100B08F0C1FC9FEDABAB51EC100B53ECB0
:1057B0001A2B09F03BFC09F0EFF92BEE280A28EE32
:1057C0000CDA30600DEE480A30EE2B0A10EE100AAB
:1057D00009F0ECFE2DEE090A41EC1B0B0CEEA80AB9
:1057E00010EE100A09F0E2FE41EC100BB0EE4B1A7D
:1057F000F0EE6B1A08F0B4FF53EC1A2B51EC100BBF
:1058000009F014FC09F0C8F929EEA90A286008EE8D
:10581000A80A08EE480A09EE490A10EE100A09F033
:10582000C5FE28EE880A41EC1B0B09EE890A20EE22
:105830000C0A10EE100A09F0B9FE41EC100BB0EEA4
:105840004B1AF0EE6B1A00E00CE008F089FF53EC05
:105850001A2B51EC100B09F0E9FB09F09DF92060BF
:1058600000206AE7022068E7FEB506460D460024E0
:10587000684600F098F800229FED781A6B460121E7
:1058800056F8220055F82270C01B00D5404200EEA9
:10589000100A03EB8200B8EEC00AD0ED000A20EE39
:1058A000010AF5EEC00AF1EE10FA0DD0C0EE201A92
:1058B000B7EE000A6A4F31EEC00AB0EEC00A10EE31
:1058C000100AB84207DC09E010EE100A654F3844B0
:1058D000654FB84202D301FA02F00443521C032A76
:1058E000CEDB2046FEBDF8B5064658480D462C389E
:1058F000002440686B46032200780D21FDF7B1FDBE
:1059000008B10720F8BD9DF80000002200F01F003C
:105910008DF800009DF8010000F01F008DF80100D7
:105920009DF8020000F01F008DF80200DFED4B1A19
:105930006946012356F8220055F82270C01B00D595
:10594000404200EE100A885CB8EEC00A60EE210A00
:10595000D0B1B3EE090A9FED451A01E020EE010A2D
:10596000C0B2401E10F0FF008854F7D180EE801ABC
:10597000B7EE000A3A4F31EE400AB0EEC00A10EE20
:10598000100AB84207DC09E010EE900A384F38449C
:10599000B0F1D97F02D903FA02F00443521C032A62
:1059A000C8DB2046F8BD1CB5044628486B462C3899
:1059B000042240680D210078FDF753FD08B107204F
:1059C0001CBD9DF800001C2101EAD0029DF80300D7
:1059D0009FED281AC0F301131A438DF804209DF897
:1059E0000120C0F3810301EAD2021A438DF8052099
:1059F0009DF8022000F0030001EAD20101438DF876
:105A00000610DFED1D1A9FED1D0A002101A8425C62
:105A100022B104EB8103C3ED001A0AE004EB81021A
:105A200082ED001A0BE0D3ED000A60EE800AC3EDB0
:105A3000000A425C521E12F0FF024254F3D1491C8C
:105A4000C9B20329E3D300201CBD0000E00C0020F4
:105A5000000080306666666666A64C4000008037AF
:105A6000295C0F3E666666C19A99D90054E3853F6A
:105A70000000E0BE000000007B14AE3E1D5A843FD3
:105A80000948804709480047FEE7FEE7FEE7FEE7D2
:105A9000FEE7FEE7FEE7FEE7FEE7FEE7044805490E
:105AA000054A064B70470000871A00088901000864
:105AB000302101203081012030410120304101207E
:105AC0002849084328490860704730B50F23C27839
:105AD00001780125FAB1244A126801F1E02102F4AB
